:020000040800F2
:1000000000000220890B0008F10A0008F50A000828
:10001000F90A0008FD0A0008010B000800000000B2
:10002000000000000000000000000000050B0008B8
:10003000090B0008000000000D0B0008110B000860
:10004000D90B0008D90B0008D90B0008D90B000800
:10005000D90B0008D90B0008D90B0008D90B0008F0
:10006000D90B0008D90B0008D90B0008D90B0008E0
:10007000D90B0008D90B0008D90B0008D90B0008D0
:10008000D90B0008D90B0008D90B000800000000AC
:10009000000000000000000000000000D90B000874
:1000A000D90B0008D90B0008D90B0008D90B0008A0
:1000B000D90B0008D90B0008D90B0008D90B000890
:1000C000D90B0008D90B0008D90B0008D90B000880
:1000D000D90B0008D90B0008D90B0008000000005C
:1000E000D90B0008D90B0008D90B0008000000004C
:1000F000000000000000000000000000D90B000814
:1001000000000000D90B0008D90B0008D90B00082B
:1001100000000000000000000000000000000000DF
:10012000D90B0008D90B0008250B0008D90B0008D3
:10013000D90B0008000000000000000000000000D3
:10014000000000000000000000000000D90B0008C3
:10015000D90B0008D90B0008D90B0008D90B0008EF
:10016000D90B0008D90B00080000000000000000B7
:10017000000000000000000000000000000000007F
:1001800000000000D90B0008000000000000000083
:08019000D90B0008D90B00088F
:1001980010B5054C237833B9044B13B10448AFF3B9
:1001A80000800123237010BD6001002000000000C2
:1001B8000CB9020808B5034B1BB103490348AFF358
:1001C800008008BD00000000640100200CB902088E
:1001D800034613F8012B002AFBD1181A013870477F
:1001E8007BB972B90029BEBF00204FF0004106E07C
:1001F80008BF00281CBF6FF000414FF0FF3000F02F
:10020800D3B9ADF1080C6DE904CE002909DB002B48
:100218001ADB00F04DF8DDF804E0DDE9022304B054
:100228007047404261EB4101002B1BDB00F040F8B6
:10023800DDF804E0DDE9022304B0404261EB41014E
:10024800524263EB43037047524263EB430300F0AF
:100258002FF8DDF804E0DDE9022304B0404261EB49
:1002680041017047524263EB430300F021F8DDF887
:1002780004E0DDE9022304B0524263EB4303704714
:1002880053B94AB9002908BF00281CBF4FF0FF31F5
:100298004FF0FF3000F088B9ADF1080C6DE904CEDD
:1002A80000F006F8DDF804E0DDE9022304B0704749
:1002B8002DE9F047089D8E4604468846002B4AD112
:1002C8008A42174662D9B2FA82F64EB1C6F12003C5
:1002D80001FA06F820FA03F3B74043EA0808B440E5
:1002E8004FEA174E1FFA87FCB8FBFEF1230C0EFBF2
:1002F800118843EA084301FB0CF29A4209D9FB181A
:1003080001F1FF3080F0EA809A4240F2E78002393A
:100318003B449A1AA3B2B2FBFEF00EFB102243EA4A
:10032800024300FB0CFC9C4509D9FB1800F1FF3285
:1003380080F0D6809C4540F2D3803B44023840EAA6
:100348000140A3EB0C0300211DB1F3400022C5E9D5
:100358000032BDE8F0878B4205D90DB1C5E900012F
:1003680000210846F5E7B3FA83F1002946D1734521
:1003780002D3824200F20581841A6EEB0302012047
:100388009046002DE5D0C5E90048E2E7002A00F0D4
:100398009080B2FA82F6002E40F0A4808A1A030CEC
:1003A8004FEA174E80B2BCB20121B2FBFEFC0EFB35
:1003B8001C2243EA024304FB0CF29A4207D9FB18B9
:1003C8000CF1FF3802D29A4200F2E080C4469B1A30
:1003D800B3FBFEF20EFB123340EA034302FB04F4C4
:1003E8009C4207D9FB1802F1FF3002D29C4200F26E
:1003F800CA8002461B1B42EA0C40A5E7C1F1200651
:100408008B4022FA06F71F430EFA01F420FA06F38E
:100418002EFA06FE4FEA1749234300FA01F81FFA9D
:1004280087FCBEFBF9F01C0C09FB10EE44EA0E44F5
:1004380000FB0CFEA64502FA01F209D93C1900F1AD
:10044800FF3A80F09C80A64540F2998002383C44EF
:10045800A4EB0E041FFA83FEB4FBF9F309FB134463
:100468004EEA044403FB0CFCA44508D93C1903F1EB
:10047800FF3E80F08280A4457FD9023B3C4443EA9A
:100488000040A4EB0C04A0FB02EC64457346E14673
:1004980062D35FD05DB1B8EB030264EB090404FAE0
:1004A80006F622FA01F31E43CC40C5E90064002198
:1004B8004FE7B1FBF2FC010C41EA0E4180B240EA81
:1004C80001423B4638463C46B846BE462026B1FB6C
:1004D800F7F1A2EB080241EA0C4166E7014618E78A
:1004E80010462CE7C6F120022EFA02F3B740B140BD
:1004F80020FA02F24FEA174E0A43B3FBFEF8BCB2E9
:100508000EFB1833110C41EA034108FB04F9B04013
:1005180089454FEA104380B23ED9791808F1FF3C6B
:1005280001D289451FD8A1EB0901B1FBFEF909FBEE
:1005380004F80EFB191192B242EA0142424529D24F
:10054800BA1809F1FF31C4D24245C2D2A9F1020159
:100558003A44BEE7F0459DD2BEEB02036CEB070CB4
:100568000138E14696E7A7EB09094944A8F1020CCE
:10057800B1FBFEF909FB04F8DBE773467FE7504659
:1005880066E70846FDE63B44023A33E7ACF1020C65
:100598003B441CE749469CE7A1EB0901C446B1FB73
:1005A800FEF909FB04F8C4E7704700BF014B18685F
:1005B800704700BF7C01002030B585B00192D1E9B9
:1005C8000052D1E90234A41A0134A4B200945B1B8E
:1005D80004460848A9B201330125006802959BB278
:1005E80092B200F0F9FD204605B0BDE8304009F0B0
:1005F8002BB900BF84330020C0F10702031D042A71
:1006080028BF0422062B4FF0FF3303FA02F38CBFF6
:100618000338002021EA030101FA00F0704700BF07
:100628002B4A136823F0070343F0030310B5136044
:10063800136803F00703032BFAD12649264A0B68EF
:1006480043F440430B60136843F48033136013682A
:100658009903FCD550682149214B01400B43536055
:1006680053681D4923F440335360136843F0807383
:1006780013600B689A01FCD5164A53685B04FCD5D5
:10068800154CA36823F0F003A360A36823F4E05398
:1006980043F48053A360A36823F46043A360A36872
:1006A80023F0030343F00203A360A36803F00C03E1
:1006B800082BFAD10B4800F0FDFF0A4801F00AF8B0
:1006C800D4F88C3023F08073C4F88C3010BD00BF90
:1006D800003C024000700040003802400080BFFF2C
:1006E8000C18400000E1F5052DE9F04FD249D34B35
:1006F8000A68D34C42F4E062ADB00A605A6C42F426
:1007080080425A645A6C02F480420F920F9A1A6C13
:1007180042F080521A641B6C03F080530E930E9BB8
:10072800E268C84B4FF6FF010A401343E360E068F4
:100738000F21C0F30220FFF75FFF0301DBB284F84B
:100748002330FFF76DFFC04BC04A1B68A2FB032391
:100758009B09013BB3F1807F09D24FF0E022F020E2
:1007680053610021072384F8230091611361002459
:10077800CDE92544DFF8C4822794D8F83030DFF873
:10078800E4B243F08003C8F83030D8F8303003F0D2
:1007980080031593159BD8F8303043F00103C8F84F
:1007A8003030D8F8303003F0010316931C2222AE03
:1007B800169BCBF8182001231C22314602274FF044
:1007C80001095846CDE922232497CDF8989000F0E6
:1007D8007BFDD8F830309A4A43F48003C8F83030AB
:1007E800D8F8303003F480031493149BD068214662
:1007F800C0F30220FFF700FF954A0301DBB282F83D
:100808003A334FF0806353602822214630462AF05D
:10081800DDFFCDE91F44D8F84430DFF84CA243F49B
:100828008053C8F84430D8F8443003F48053129306
:10083800129BD8F8303043EA0903C8F83030D8F8AA
:10084800303003EA09031393139B03231CAD1E9353
:1008580005232946A022219358460223CDE91C23CB
:1008680000F032FD7B4B1A6C22F0606242F080622D
:100878001A641A6C22F0C00242F040021A641A6C20
:1008880022F440321A641A6C22F490721A641A6CB8
:1008980022F400721A641A6C42F480621A641A6CA8
:1008A80022F4C05242F400621A641A6C22F4C04264
:1008B80042F400521A645A6D22F004025A654FF449
:1008C80082714FF40063CDE923134FF400730022C3
:1008D800279331460A235046CDE92A23CDE92544FA
:1008E800CDE92844229400F095FDDAF8043023F08D
:1008F8001003CAF80430202221463046ADF86E4075
:10090800CDF85E40CDF86240CDF86640CDF86A403B
:100918002AF05CFFCDE91C44CDE91E44CDE9204412
:10092800D8F840303B43C8F84030D8F840303B4016
:100938001093AAF5963A109B40F2E733ADF85C3075
:1009480017A9F9235046199300F09CFDDAF8002006
:100958004FF0804322F08002CAF80020D3F8182410
:1009680042F00802C3F8182460217D22CDE9221440
:1009780025924946324650462494269400F0C8FDF4
:100988004FF080434022D3F8181421F00401C3F833
:100998001814DAF8043023F07003CAF80430DAF8CF
:1009A800083023F08003CAF80830D8F83030DFF870
:1009B800BCA043EA0903C8F83030D8F830301C929C
:1009C80003EA0903119329460022119B1F9402236D
:1009D8005846CDE92023CDE91D7400F075FC14A11B
:1009E800D1E900010822ADF898201B4BCDF89CB046
:1009F8000422ADF8A0201022CDE92201ADF8A820EC
:100A08000FCB0DF1280C85E80F00CDE9247BCDF83C
:100A1800A4B08CE80F00114BDFF854E00593DFF821
:100A280054B00F4BCDE906EB26E000BFAFF30080D2
:100A38000030014000640240003C0240003802409F
:100A480000ED00E00003FA0500000020D34D62101D
:100A580000E100E00064024024B9020879120008AD
:100A68005D1200080000024000300140843300207D
:100A7800C1120008C9120008CDE90393CDE908673F
:100A8800CDE901444FF4A078F023CDF800801A4650
:100A98004146DAF8000000F0ADF9CAF8000000F0AD
:100AA800B7FA14F0FDF80C481CF0AEFFF0214046F0
:100AB80008F008FD094A0A49009405464FF4C8534E
:100AC80008F024FE0749284608F0A8FE2AF07CFD15
:100AD80018F064F8FCE700BFB505000880010020A5
:100AE800801A0020C1050008FEE700BFFEE700BF2E
:100AF800FEE700BFFEE700BFFEE700BF704700BF8C
:100B0800704700BF704700BF034A136801200344C1
:100B180013601CF045BF00BF7C0100200148022182
:100B280000F058B8006402400C490D4A0B6810B533
:100B38000C4C121B2BB11844904207D80860184679
:100B480010BD094B0B6018449042F7D92AF056FEA5
:100B58000C2303604FF0FF33184610BD803300208C
:100B68000000022000040000C8760020034AD2F8E2
:100B7800883043F47003C2F88830704700ED00E015
:100B8800DFF834D00D480E490E4A002302E0D4584D
:100B9800C4500433C4188C42F9D30B4A0B4C0023BD
:100BA80001E013600432A242FBD3FFF7DFFF2AF013
:100BB8002BFEFFF799FD704700000220000000207F
:100BC80060010020B0EE020860010020C476002019
:100BD800FEE7000030B5384B84460A4693E8030028
:100BE80083B002AB03E9030002F1080169443F2323
:100BF80011F8081C8B403149032A8CBF0CF10C00FA
:100C08000CF108000C6803602CB1A36A9C4504D061
:100C1800246F002CF9D103B030BDE36A9A42F7D1B2
:100C2800236C23B15B69B4F844101942F0D102EB8C
:100C380042020CF1100CD1000CEBC2025CF801303E
:100C480023F001034CF80130136813F00103FBD1C2
:100C5800256E65B1B5F5803F27D255605CF8012057
:100C6800236642F001024CF8012003B030BDE36D69
:100C78002BB172B6E06D2AF0D9FCE56562B6626AFE
:100C8800536823F00203536093681B06FCD494F85E
:100C9800653023B9236C13B1B4F844109961136813
:100CA80023F04003136003B030BDA5F57F434FF632
:100CB800FF70FF3B5060D1E734B90208843300204D
:100CC800016BE9B110B4848E4FF0E02223048B61EC
:100CD8001A20136928B11369DB03FCD501380028F1
:100CE800F9D14FF0E0228C611A21136929B11369F7
:100CF800DB03FCD501390029F9D15DF8044B7047B5
:100D0800704700BF70B5446A23685B06FCD490F84E
:100D180065302BB9036C1BB1B0F8442012049A61FA
:100D2800236823F42C432360236843F040034FF0E7
:100D3800E02E23600B78012B29D0022B4AD0002B00
:100D48003BD1828F436A866B4D781204B2611D7362
:100D58009A689607FCD59A681506FCD48B7801F139
:100D6800030C002B44D003331944436A856B1CF8E9
:100D7800012B868FAE611A739A689207FCD59A6820
:100D88001606FCD48C45F0D10B78012BD5D14B78C5
:100D980001F1020C63B302331944436A866B1CF8F1
:100DA800012B858FB5611A739A689507FCD59A68E7
:100DB8001206FCD48C45F0D1BCE790F8653023B915
:100DC800036C13B1B0F844209A61236823F0400300
:100DD800236070BD4A78DEF81030013232B1DEF897
:100DE8001030DB03FBD5013A002AF8D10231A1E724
:100DF80061469FE72DE9F04F83B01F46BDF93430B7
:100E080000930646BDF93830BDF830A09DF83C90F7
:100E18009DF854B0019388467420012115462AF0A4
:100E2800E9FB002800F0A380DDF850C080F848B046
:100E3800044600F1240EBCE80F00AEE80F00BCE841
:100E48000F00AEE80F00DCF80030CEF80030A36ADF
:100E5800ABB1E26A02EB420203EBC203BBF1020F41
:100E68001A696FF30F0203F110011A6177D01A693A
:100E780042F48A621A614B6923F080034B6145454D
:100E88002A4638BF4246454528BF4546B9F1030FB3
:100E98006AD8DFE809F055025502B9F1010F6BD0A5
:100EA800019BAAEB03039B1A28463946009D01952E
:100EB8001BB215465746009302468A46009B63813B
:100EC800019BA3810023194665F30F0167F30F0304
:100ED8006AF31F4362F31F41BD422360616043D838
:100EE800524541D8109B002B3ED0119B002B3BD084
:100EF800109A6261119AA261129AE26116AB139A72
:100F080022620FCB002704F14C0584F8089085E88D
:100F18000F00C4E91B7784F864706EB1336F4BB16E
:100F280001221E461B6F511C1046CAB2002BF8D175
:100F380084F86400E6663467204603B0BDE8F08FA5
:100F4800B9F1000FBAD0009BF91A019BAAEB030371
:100F5800491B9B1A09B21BB200910193AEE71A69AB
:100F680042F420521A6182E720462AF05FFB0024EF
:100F7800204603B0BDE8F08F009BFB1A5B1B284698
:100F88003946019D00951BB2154657460193024606
:100F98008A4693E76429C26C0B4628BF642380F80D
:100FA8005A3022B3D16A10B401FB03F3174C016D18
:100FB800A4FB0343B1F5807F4FEA531324D011D823
:100FC80001291FD0102900D193631368DB0706D4C9
:100FD800136A19431162136843F0010313605DF843
:100FE800044B7047B1F5805FEFD11364EDE7436DB3
:100FF80023B1B0F8582011B19A61704770471204B4
:101008009A6170475363E0E7D363DEE71F85EB51CE
:1010180010B50446FFF754FE6369207A98470146E5
:101028002046FFF76FFE94F85A10BDE81040FFF70E
:10103800B1BF00BF436A70B516461A685206FCD4A1
:1010480090F865402CB9056C1DB1B0F84420120425
:10105800AA6190F8662012B9826B858F95611A682B
:1010680022F42C421A6090F84820022A1A6820D0EC
:1010780042F040025FEA460C1A6018BF01EB0C040C
:1010880009D011F8012B1A739A689507FCD58C4280
:10109800F7D190F865409A681206FCD424B9026C1E
:1010A80012B1B0F8441091611A6822F040021A6037
:1010B80070BD42F400621A601A6842F040021A6079
:1010C80006F1FF3E002EE6D031F8022BDA609A686E
:1010D8009607FCD5BEF1010EF6D29A681206DAD44C
:1010E800DCE700BFF0B5876A83B0002F6CD00E46EE
:1010F80090F84810446A01291546844608BF5500EF
:10110800236813F04003FBD19CF8650030B9DCF884
:10111800400018B1BCF84420120482619CF8662093
:1011280022B9DCF83820BCF83C0090612268CCF881
:10113800605022F42C420229226040D021682548C0
:10114800DCF82C2041F04001216003C80DF1080EA5
:101158000EE90300032A02EB420002F108026A4486
:1011680007EBC00012F808EC8CBF0C3708373F2299
:1011780002FA0EF23A60626800F1100142F00202CF
:1011880062600C348C60CE60026922F400720261E5
:101198000269B5F5803F42F4806202610DD34FF6D3
:1011A800FF72A5F57F434A60FF3B0269CCF86030C7
:1011B80042F00102026103B0F0BD4D60F5E722681C
:1011C80042F400622260B9E703B0BDE8F040FFF7DF
:1011D80031BF00BF34B902082DE9F8431D468388A2
:1011E800BDF82060DDF824909DF828808B420446E5
:1011F8000AD90846E188914206D900EB050C9C45BE
:1012080002DC93198B4201DDBDE8F883A189B4F8AB
:101218000AC0A769731E13440B4411446A1E024492
:101228006244604492B29BB289B280B2B847014628
:101238002046FFF767FD06FB05F24946B8F1000FA7
:1012480003D0BDE8F843FFF74DBFBDE8F843FFF70B
:10125800F1BE00BF03289CBF034B1B5C034888BF3B
:10126800002380F84130704784B902082800002024
:1012780000B54FEA102C4FF0000E6CF3070E60F328
:101288000F2E100A60F3174E62F31F6E4FF0000C1A
:101298000A0A62F3070C61F30F2C1A0A054862F375
:1012A800174C63F31F6CC0F803E0C0F80AC05DF880
:1012B80004FB00BF14000020004870470C00002009
:1012C80000487047040000202DE9F04F0D6895FA9A
:1012D800A5F2002A00F08D80B2FA82F235FA02F304
:1012E80000F087804FF0010C4FF0030E4FF00F0B0A
:1012F80017E0076893FAA3F434B1B4FA84F46400ED
:101308000EFA04F427EA040793FAA3F323B1B3FA15
:1013180083F35B009E4037430760013235FA02F3DE
:1013280067D00CFA02F32B40F7D04E68741E012CDC
:101338003DD993FAA3F4D1F81090C76834B1B4FA40
:1013480084F464000EFA04F427EA040793FAA3F479
:1013580034B1B4FA84F4640009FA04F947EA0907D5
:10136800022EC760C5D193FAA3F4D1F814901CB12A
:10137800B4FA84F4072C3FDD1C0A476A94FAA4FAED
:10138800BAF1000F07D0BAFA8AFA4FEA8A0A0BFABA
:101398000AFA27EA0A0794FAA4F434B1B4FA84F4EE
:1013A800A40009FA04F947EA09074762A1E7D1F856
:1013B8000890876893FAA3F434B1B4FA84F464000B
:1013C8000EFA04F427EA040793FAA3F434B1B4FA42
:1013D80084F4640009FA04F947EA09078760446855
:1013E80024EA0308CC6803FB04F448EA04044460D4
:1013F8009FE70020BDE8F08F076AA4004FF00F0AAE
:1014080009FA04F90AFA04F427EA040747EA09077B
:1014180007626EE703685B06024629D430B4146895
:101428000B684D68486924F47F4C8C682B43234330
:10143800CC6823430C6923438C6903432343CC6959
:1014480023430C6A2CF0BF0C234343EA0C031360BC
:10145800536823F0040343EA1043B4F5005F536074
:101468000CD0D36923F40063002030BCD3617047EB
:10147800D36923F400630120D36170478B8C136117
:10148800EFE700BF30B4204D8C6803680A88A84293
:101498002CD0B0F1804F17D0A5F57C45A84213D0C9
:1014A80005F58065A8420FD005F58065A8420BD0E8
:1014B800164DA8420CD005F58065A84208D005F560
:1014C8008065A84208D103E04D6823F070032B43E0
:1014D800C96823F440730B430360C46282624369A2
:1014E80043F00103436130BC002070474D6823F08E
:1014F80070032B43CD6823F440732B430360C4620D
:1015080082620B690363EAE7000001400040014082
:10151800B1F5807F30B44CD025D8012967D0102987
:1015280044D1036A156923F010030362036A44680F
:10153800816923F0200343EA0513156821F4E64185
:1015480041EA0521556823F0100343EA0513584D75
:10155800A84200F09180D26844608161826303628E
:10156800002030BC7047B1F5805F1FD1036A156950
:1015780023F480530362036A4468C16923F4005367
:1015880043EA0533156821F4E64141EA0521556827
:1015980023F4805343EA0533454DA84200F0818087
:1015A800D2684460C16102640362D9E7012030BC9B
:1015B8007047036A156923F480730362036A4468F9
:1015C800C16923F4007343EA0523156821F0730108
:1015D8002943556823F4807343EA0523344DA84210
:1015E80035D0D2684460C161C2630362B8E7036A58
:1015F800156923F001030362036A4468816923F0D3
:1016080002032B43156821F073012943556823F021
:1016180001032B43264DA84205D0D268446081615E
:10162800426303629CE7556923F0080343EA850394
:10163800956924F480742C43956823F0040343EAE5
:101648008503D56924F4007444EA4504E5E755693F
:1016580023F4006343EA8523956924F4805444EA1B
:101668000514956823F4806343EA8523D56924F437
:10167800005444EA4514B4E7556923F0800343EA6B
:101688008513956924F4806444EA8504956823F0F9
:10169800400343EA8513D56924F4006444EAC50489
:1016A80059E7956924F4804444EA851478E700BF33
:1016B80000000140064BA3FB00239B094FF0E022EA
:1016C800013B00200521536190611161704700BF03
:1016D800D34D6210014B1860704700BF0000002016
:1016E80070B50646002011F085F8044690B1002533
:1016F8000AE011F097F8034620469E4208BF2546A7
:1017080011F078F8044638B1204611F083F8012822
:101718002046EED1204670BD2C46204670BD00BF45
:101728002DE9F047077F17F0010722D1C568064663
:101738008946904615B1AA46012708E0884705461C
:10174800B8B18246286800F087FF030614D52946F9
:101758003046C047504505460BD00028F2D1337FAC
:101768001A0706D52FB13046C84700270546002876
:10177800E8D10020BDE8F0872C682CB910E020469D
:1017880006F048FC044658B10121204600F054FFF9
:101798000028F4D02046012100F04EFF0028D6D1C1
:1017A800F368AB42E5D073B130461C68FFF798FF89
:1017B80014210246204601F0D7FC0128D9D1F3684C
:1017C800186802F0B5FAF56030462C68FFF788FF14
:1017D80013210246204601F0C7FC0128C9D1F3684D
:1017E800186802F0A5FA33690BB130469847012012
:1017F800C0E700BF0148202115F078BBBC330020AA
:10180800014B186C704700BF8833002070B582B058
:10181800054600F025FFF0B1C368044613B11B6804
:10182800AB421AD0204615F0DBFB014620B912E086
:1018380015F0DEFB014670B10B68AB422046F7D1CC
:10184800019115F0A5FB0199084618F0E7FDAB6872
:101858000BB100225A6002B070BD037FDA0744BFA3
:1018680023F00103037715F0BBFBE36883422AD01A
:10187800227F42F0080323775B07C2F3C00614D423
:101888001B4A1C492046FFF74BFF636903B158B355
:10189800237F66F3C3032377E368002BC2D01B685A
:1018A800AB4204BF0023E360BCE7134A1349204658
:1018B800FFF736FF6369002BEAD00028E8D101461C
:1018C80020469847E4E7204615F08EFBE2689042F0
:1018D8000346CDD120461E68FFF702FF14210246B9
:1018E800304601F041FCD7E7012120469847CFE771
:1018F800F96F0108E96F010801700108F16F01082B
:10190800A8B170B50D4604460846FFF77FFFAB68DF
:1019180033B35C60204615F025FB064630B1056000
:10192800204615F05DFB864202D070BDFEE7704789
:10193800227F42F0080323775B07C2F3C00514D562
:101948001149124A2046FFF7EBFE6369014613B1BD
:1019580008B920469847237F65F3C303237770BDF2
:10196800284600F083FEAB68D3E7094A09492046B8
:10197800FFF7D6FE6269002AEDD00028EBD10121DD
:1019880020469047E7E700BFF16F010801700108A2
:10199800F96F0108E96F010868B110B50446074AF4
:1019A8000749FFF7BDFE636933B128B92046012115
:1019B800BDE810401847FEE710BD00BFF96F0108E9
:1019C800E96F0108B0B1027F10B5C2F340048C4240
:1019D8000FD0C46861F34102027754B1246844B15E
:1019E800FFF77EFE13210246204601F0BDFB0128C9
:1019F80001D010BDFEE72046BDE8104002F098B9BE
:101A080010B1C06800B10068704700BF10B1007F16
:101A1800C0F34000704700BF10B508460C4615F0EB
:101A280063F8002005F00AFC204605F0CFFB0120F2
:101A380005F004FC0021204613F0BCFFCCB1A368DC
:101A4800B3B15A6822B12046FFF7E0FEA3687BB124
:101A5800186820B118F0E2FCA36800221A6003F1AC
:101A6800080015F00DF8A06818F0D8FC0023A36052
:101A780010BDFEE72DE9F0414E6882B00C462EB34A
:101A8800304603F00BFC0746304603F001FC1022F9
:101A9800804600213046B56905F0D6FB2B18A3EB2C
:101AA8000803A361013B0190236212220021304602
:101AB800756905F0C9FB0544ED1B4BF676336A1EC4
:101AC8006561E261636202B0BDE8F08141F67603C8
:101AD800636202B0BDE8F0812DE9F04F048D8C42BD
:101AE8008BB008D00A460F462146054605F0D8FDBA
:101AF800804618B92F850BB0BDE8F08F284602F054
:101B080017F928462F8505F089FF4FF4207018F043
:101B180071FC6B8D13F47C7F8246C3F3051B76D072
:101B2800EB6809950026FA43079303929C463146D1
:101B38000894C1463D46DCF80440039B1FFA84FE26
:101B48001EEA030FC4F3170440F091809CF8073095
:101B580013F0020340F08B80079A52F83620177A68
:101B6800D2F80080FF2F00F08880BA0042441FB9E5
:101B78007DE001339F427AD012F8010B6628F8D134
:101B880058F82330D3F8008098F80000002800F0B7
:101B9800818004F47F07002950D0CDE9049406938E
:101BA8005346002204E001328A4203F1140342D072
:101BB8001C7A8442F7D15C6804F47F09B945F2D1F4
:101BC800A4B27445EFD38A4235D018F8010F002823
:101BD800E6D1DDF8109001365E455ED020290CF183
:101BE800080CA8D12F46089C099DC84601EB810125
:101BF8000AEB81095646716800963B46224601F475
:101C08007F012846143605F001FC4E45F3D15046B5
:101C180018F004FC08F0FD03012B45D0B8F1020FC1
:101C28007FF469AF284602F083F828460BB0BDE878
:101C3800F04F01F04FBADDE90494069BD86801EB38
:101C4800810201312AF822000AEB820218695080C9
:101C58009868D06098F80000107258681061546055
:101C680018F8010F0028B6D0202996D1B3E701361D
:101C78005E4512D00CF1080C5DE798F8003023B9E6
:101C8800F5E718F8083F002BF1D0662BF9D1D8F802
:101C9800043077E70136B345ECD12F46089C099DFF
:101CA800C8460029A2D1B2E7FF224FF47021284686
:101CB8000BB0BDE8F04F05F0B5BA00BF2DE9F04113
:101CC8000846A6B00E4614F007FF0446304614F046
:101CD800FFFE631E0546312B55D8DFE813F00C01D3
:101CE800540015015400540054005400540054008A
:101CF80054001E01460154004F01540054006C0169
:101D080054009301BF015400540005021702200239
:101D18005700C9015400570054005400570054009C
:101D2800540054005400540054005400540054000B
:101D3800D3015400FA0154005400540054003200F6
:101D48002E020A22002105F07FFA162204460021FD
:101D580028460A9405F078FA83B20A900BB9E4B2DF
:101D680014B1284601F00EFD284606F09FF90646F4
:101D780048B10024AB681B6853F82400013401F013
:101D880001FDA642F6D126B0BDE8F081304614F038
:101D9800A3FE0546304614F09BFE1A2D044600F0BB
:101DA800DD811D2D00F06982202DECD1304601F037
:101DB8006FFA06AA064602A9204603F011FF02A8F8
:101DC80013F058FF20B906A813F054FF00284FD08D
:101DD8000AAD28460AF0D6F81D224FF48031204675
:101DE80005F032FAC3B2022B01908DF8483000F2A8
:101DF8000F8332224FF48031204605F025FAC3B212
:101E0800022B01908DF8703000F2F4823E224FF4DC
:101E18008031204605F018FAC3B2022B01908DF8E4
:101E2800943000F2D9824FF48031204605F08EFDBF
:101E3800FC2840F2C4829DF848209DF87030134376
:101E48009DF8942013439BB10C224FF48031204617
:101E580005F0FAF90190119002A813F00BFF002881
:101E680040F0088306A813F005FF002840F00A8315
:101E780030220021204605F0E7F90A90002882D098
:101E880035220021204605F0DFF90A9000283FF4AA
:101E98007AAF00250AA80AF075F80AAA294620464A
:101EA8008DF848508DF863508DF880508DF8945017
:101EB8000E9600F01DFD29466822204605F0C4F95B
:101EC8002946074606906922204605F0BDF9069086
:101ED8000246D4E90650236A64693946CDE9080305
:101EE80006A8CDE9064513F0D3FE06AA0AA930468E
:101EF8000AF0D0F847E730B1038D43F020018B4258
:101F08003FF441AF12E1FEE730B1038D9E067FF545
:101F18003AAF23F0200109E1FEE728B3038D9A06C2
:101F280003D523F02001FFF7D7FD304614F0D8FD84
:101F380010F0A0FC00287FF426AF6B6A1F077FF51E
:101F480022AF2B8D13F0010F40F0898143F001017E
:101F580002D12846FFF7C0FD00222321284626B0DB
:101F6800BDE8F04101F000B9FEE730B1038D43F060
:101F780040018B423FF407AFD8E0FEE7D0B1038DB4
:101F88005C0603D523F04001FFF7A6FD284603F0C1
:101F980061F902287FF4F7AE0AAA06A9284603F0D9
:101FA8001FFE06A9284601F0BFFE0AA9284601F02F
:101FB800BBFEE8E6FEE720B3436A1C0700F13F8159
:101FC80003F40163B3F5016F7FF4DDAE00F07EFC2E
:101FD80000287FF4D8AE284603F060F90746284663
:101FE80003F0E8F90446304601F05AF9A0F111036C
:101FF800032B3FF6C8AEDFE813F0D900C600E700B0
:102008000301FEE748B3436A5F0500F13281A8681F
:1020180000B14068FFF7FAFC044610F0F5FB002811
:1020280000F0668110F0F6FB022800F00681042813
:102038000CBF062102212B8D1943002C40F0F7809C
:102048008B4203D02846FFF747FD298D0E077FF501
:102058009AAE21F0080189B268E0FEE738B1038D35
:1020680013F00E0F3FF48FAE23F00E015EE0FEE793
:10207800002100F0C3FF0146304626B0BDE8F0411C
:1020880001F026B90122002105F0DEF802220646F9
:10209800002128460A9605F0D7F80A2200210A905E
:1020A8000746284605F0D0F816220A900446002173
:1020B800284605F0C9F883B20A9043B9E4B234B9A6
:1020C8006FF040439E4202D09F427FF45CAE2846A8
:1020D80005E090F82A3043F0020380F82A3026B051
:1020E800BDE8F04101F04EBB78B1038D980605D5E7
:1020F80023F020012846FFF7EFFC2B8D59067FF5CA
:1021080042AE23F0400399B210E0FEE730B1038DF0
:1021180043F010018B423FF436AE07E0FEE758B1BA
:10212800038DDA067FF52FAE23F01001284626B07E
:10213800BDE8F041FFF7D0BCFEE705F0B7FF064663
:1021480000283FF420AE0024AB681B6853F8240035
:10215800013401F017FBA642F6D114E6304614F01C
:10216800BFFC0378022B05463FF40DAE2D2200215B
:10217800204605F069F806460A90002800F0BC8061
:1021880002232B70FFE5284603F07CF80446284616
:1021980001F0CEFB011EB8BF0331002204EBA10100
:1021A800284626B0BDE8F04103F00EBB284603F0F0
:1021B80069F80446284601F0BBFB011E00DA03312A
:1021C8000022A4EBA101EBE7284603F04DF88207B3
:1021D800D9D0002F01DC002CD5DD284603F04CF8BF
:1021E8000446284601F09EFB011EB8BF03310022B9
:1021F80004EBA101284626B0BDE8F04103F0CEBAB1
:10220800284603F031F88307D0D0002F01DC002CDA
:10221800CCDD284603F030F80446284601F082FB5E
:10222800011EB8BF03310022A4EBA101E2E741F08F
:1022380008018B423FF4A7AD78E70621FBE630465C
:1022480001F02EF8A0F11103032B00F22381DFE83F
:1022580003F0090209022B8DD9077FF57DAE23F023
:10226800010176E62B8DD80743F001013FF574AEE6
:102278006FE6012103F094FCC9E6304601F008F846
:102288000AAD0646284609F07DFE00212A4620466A
:102298000E9600F02DFB35220021204604F0D4FFD5
:1022A800069028B19DF8713043F020038DF8713005
:1022B80068220021204604F0C7FF692207460690DD
:1022C8000021204604F0C0FF069002463946D4E9B2
:1022D8000670236A6469CDE9080306A8CDE90647B4
:1022E80013F0D6FC06AA2946304609F0D3FE4AE583
:1022F800304600F0BFFF95E601460C22204604F068
:10230800A3FF682207460A903146204604F09CFF46
:10231800692280460A903146204604F095FF0A90CB
:102328000246D4E906E0D4F820C063694146CDE905
:102338000C0C0AA8CDE90A3E13F0AAFC68683A46D4
:102348000AA913F061FE002836D01D223146204626
:1023580004F07AFFC2B2FC2A06902DD95F223146DA
:10236800204604F071FFC2B2FC2A069024D920222C
:102378003146204604F068FFC2B2069042B12522D9
:102388003146204604F060FFC2B2FC2A069013D9F9
:1023980026220021204604F057FF069048B1827A91
:1023A8003AB1C178FC2907D9012A02D0037AFC2B5B
:1023B80002D900232B70E6E401232B70E3E49DF897
:1023C800483013FB00F3C3F307238DF848308DF82A
:1023D80070308DF8943036E53C224FF48031204639
:1023E80004F032FF0028019021901FDC00238DF8B3
:1023F800943018E530224FF48031204604F024FF51
:10240800002801901B9027DC00238DF87030FDE434
:102418001C224FF48031204604F016FFC0F3074316
:102428000190ADF849008DF84B30E2E442224FF4B8
:102438008031204604F008FF3D22019024904FF49B
:102448008031204604F000FFC0F307430190ADF847
:1024580081008DF88330E6E431224FF48031204644
:1024680004F0F2FEC0F307430190ADF866008DF862
:102478006830CBE4002302AA294630460C9309F0C1
:1024880009FEEFE40123294606AA30460C9309F019
:1024980001FEEDE40A283FF476AC5DE510B501468F
:1024A800044800F03BF920B1044600F09BF92046AF
:1024B80010BDFEE7F8C0020818B3F0B5436A31EA68
:1024C800030389B00D46044619D001F03FF9E90726
:1024D800064617D4636A2B436362204601F036F937
:1024E800864202D115F0C07F07D0204605F092FD44
:1024F80001F048F9204601F045F9EB061CD409B073
:10250800F0BDFEE7204601F013FC636A228D2B43E1
:1025180092076362E1D5A368002BDED05F68002FC5
:10252800DBD03846FFF738FA3846FFF769FA002853
:10253800D3D001F0FDFBD0E704AA6946204603F09A
:102548004FFB6946204601F0EFFB04A9204601F045
:10255800EBFB09B0F0BD00BF40B170B5436A19424A
:1025680088B00D46044602D108B070BDFEE701F000
:10257800EDF8EA06064621D4636A23EA0503636296
:10258800EB070FD4204601F0E1F8864202D115F09E
:10259800C07FE9D0204605F03DFD08B0BDE8704099
:1025A80001F0F0B8204601F0C3FB204605F032FDEB
:1025B80001F0E8F8204601F0E5F8E3E704AA6946E7
:1025C800204603F00DFB6946204601F0ADFB04A947
:1025D800204601F0A9FBCFE70B4628B1028D9343B3
:1025E80042EA010101D17047FEE7FFF775BA00BF63
:1025F8000A4628B1038D1A4223EA010101D1704726
:10260800FEE7FFF769BA00BF10B40B464AB138B10C
:10261800028D934341EA020109D15DF8044B7047EA
:10262800FEE740B1028D134222EA0101F5D05DF8C0
:10263800044BFFF751BAFEE728B1436A99430CBF30
:10264800012000207047FEE728B1436A194214BFF1
:10265800012000207047FEE708B1008D7047FEE7B3
:1026680018B1806800B140687047FEE720B1836800
:1026780010B504460BB110BDFEE7342017F0BAFEC2
:10268800A06030B1438E43F4707343F00303438674
:1026980010BDFEE720B10068401AB0FA80F040098A
:1026A800704700BF2DE9F0470F683E680C460546A5
:1026B8005EB3D6F800800E60B8F1000F1FD0D8F8CE
:1026C8000090C1F80080B9F1000F11D0D9F80020AE
:1026D800C1F8009022B10A60FFF7E4FFC4F8009047
:1026E800D9F8043013B1214628469847C4F8008029
:1026F800D8F8043013B121462846984726607368F5
:1027080013B121462846984727607B6823B12146A4
:102718002846BDE8F0471847BDE8F08770B50D4674
:10272800064650B12E4C034601E01B682BB11A6ACD
:1027380014EA0200F9D0C2F30F1017F05BFE04464A
:1027480000284AD0C0E90065ADB1AE68002E38D087
:10275800318E3068013189B23186890017F068FE00
:10276800AA683060138E126803F18043013B42F877
:102778002340204670BD06F089FF064650B3D0F8C6
:10278800B80218B3D6F8D4320133990017F050FEC6
:10279800B0B1D6F8D432C6F8B8025A1C0025C6F82B
:1027A800D42240F82340C4E90555284606F07EFFA8
:1027B8000138E061284606F08BFF01382062D8E72F
:1027C800FEE72846FFF752FFAE68C1E7C6F8D452C5
:1027D8000421DBE7204617F021FE0024C9E700BFEB
:1027E800F0FF0F00002862D0F8B5044600F0CAFFD9
:1027F800002004F023FD20461BF092F825682E687F
:10280800BEB13768266077B13B6827602BB123607B
:1028180021462846FFF746FF27607B6813B121460B
:10282800284698472660736813B12146284698477A
:1028380025606B6813B1214628469847012004F0AB
:10284800FDFCFF224FF47021204604F0EBFC2046EB
:1028580001F0AAF8FEF7D4FF58B1226812B908E0CF
:10286800126832B192F8203013F00C03F8D0042B20
:1028780013D0204605F0CEFB054668B122462A2132
:1028880000F072FC224628462B2100F06DFC204601
:10289800BDE8F84001F04CBAF8BD2146FFF730F822
:1028A800204605F0B7FB05460028E7D1F4E7704756
:1028B80010B50446006800E02060836821460BB12B
:1028C8009847206800680028F6D110BD006810B944
:1028D8000CE0006848B190F8203013F00303F8D0FA
:1028E800A3F10100B0FA80F040097047704700BFBB
:1028F800F0B513698BB01446C2E9000106460D46CF
:10290800002B55D093F838700DB1022F43D90C2203
:102918002946304604F098FC94F820300990E0618C
:10292800002B40F02A8194F84830002B40F0F280C8
:1029380094F85830002B40F0BE8094F83B30002BC0
:1029480079D194F86C30BBBBFC2F22D894F82020A6
:1029580094F83B3094F8481012FB07F213FB07F386
:1029680012121B1284F8202084F83B3094F86C2053
:1029780094F8583011FB07F112FB07F213FB07F329
:10298800091212121B1284F8481084F86C2084F87B
:1029980058300BB0F0BD002384F8203084F83B3069
:1029A80084F8483084F8583084F86C300BB0F0BDA7
:1029B80004F0CCFF0746A7E73C222946304604F03E
:1029C80043FC0990E0650028BED094F86C30022BD7
:1029D800BAD93E222946304604F036FCC3B2022B4F
:1029E800099084F86C30AFD940222946304604F06B
:1029F8002BFC4122206609902946304604F024FC2D
:102A08004222606609902946304604F01DFC3D22AA
:102A1800A06609902946304604F016FC294602466D
:102A28003046099204F0FAFDC0F30743A4F85900B0
:102A380084F85B3088E728222946304604F004FCF5
:102A48000990206300283FF47CAF292229463046AC
:102A580004F0FAFB0990C0B2022884F83B007FF624
:102A680070AF206B08F04AFB022800F006812A228A
:102A78002946304604F0E8FB29460246304604F071
:102A8800CDFD20870990C0F3074084F83A002B2237
:102A98002946304604F0D8FB2C2284F83C000990E3
:102AA8002946304604F0D0FB0990003818BF0120B1
:102AB80084F83D0045E738222946304604F0C4FB37
:102AC8000990206500283FF438AF3A22294630465D
:102AD80004F0BAFB0990C0B2022884F858007FF6C7
:102AE8002CAF3B222946304604F0AEFB3922606504
:102AF80009902946304604F0A7FB2946024630468D
:102B080004F08CFD0990A4F84A00C0F3074084F84B
:102B18004C0012E730222946304604F095FB099014
:102B2800606400283FF404AF32222946304604F09E
:102B38008BFB0990C0B2022884F848007FF6F8AEF3
:102B480034222946304604F07FFB94F84930099036
:102B580060F3040384F8493031222946304604F0F2
:102B680073FB29460246304604F058FD0990E08779
:102B7800C0F3074084F84000DAE61D2229463046B3
:102B880004F062FB0990C0B2022884F820007FF6A6
:102B9800CAAE1C222946304604F056FB2946024696
:102BA8000190304604F03AFDA4F821000990C0F3E2
:102BB800074084F8230026222946304604F044FBC7
:102BC800099010B1C37A1A0750D1202229463046FD
:102BD80004F03AFB94F82F30099060F3030384F86B
:102BE8002F301B073FF49FAE1C222946304604F0C5
:102BF8002BFB29460246304604F010FDA0840990BC
:102C0800C0F3074084F8260023222946304604F002
:102C18001BFB29460246304604F000FDA4F82900B3
:102C28000990C0F3074084F82B002122294630463A
:102C380004F00AFB222284F828000990294630462D
:102C480004F002FB242284F82D000990294630461E
:102C580004F0FAFA252284F827000990294630461C
:102C680004F0F2FA099084F82C005CE601460C2284
:102C780004F1240016F0E8FF55E65A2229463046AA
:102C880004F0E2FA5822606309902946304604F0BD
:102C9800DBFA29460246304604F0C0FC099020873A
:102CA800C0F3074084F83A004BE600BF70B51446FD
:102CB80082B0C2E90001592206460D4604F0C4FA62
:102CC800C3B2022B019084F8503041D92269002AFE
:102CD80040D092F83800FC2844D95822294630467A
:102CE80004F0B2FA294602460190304604F096FCF8
:102CF800C0F3074384F8323020865B2200902946CF
:102D0800304604F0A1FA5C2220640090294630463F
:102D180004F09AFA5D22E06300902946304604F0F8
:102D280093FA94F85430009060F3020384F8543016
:102D380015BB5A222946304604F086FA5E2203461D
:102D4800606229463046009304F07EFA84F8520007
:102D580002B070BD2946304604F0F8FDFC2894F80E
:102D6800503005D813FB00F3C3F3072384F8503021
:102D7800022BB2D802B070BD67222946304604F053
:102D880063FA94F85430009060F3C50384F8543023
:102D9800CFE700BFF0B5144683B0C2E90001442272
:102DA80005460E4604F050FAC3B2022B019084F88F
:102DB8004C3036D92269B2B392F83800FC283AD997
:102DC8004FF48073002205F11407C4E90C33E26262
:102DD800384613F04FFB00EBD070401020643846A3
:102DE80013F04EFB00EBD070401060644622314671
:102DF800284604F029FA452284F84B000190314610
:102E0800284604F021FA314602460190284604F08B
:102E180005FCC0F307430090A4F8480084F84A3042
:102E28009EB903B0F0BD3146284604F08FFDFC285A
:102E380094F84C3005D813FB00F3C3F3072384F848
:102E48004C30022BBCD803B0F0BD6722314628466F
:102E580004F0FAF994F84D3060F3020384F84D3029
:102E680003B0F0BD70B5144682B0C2E900014D222E
:102E780006460D4604F0E8F9C3B2022B019084F827
:102E88003C300DD922696AB192F83800FC2811D972
:102E980048222946304604F0D7F90190206398B9B2
:102EA80002B070BD2946304604F050FDFC2894F865
:102EB8003C3005D813FB00F3C3F3072384F83C30F8
:102EC800022BE5D802B070BD4C222946304604F0EA
:102ED800BBF9294602460190304604F09FFBC0F337
:102EE8000743A085009084F82E30492229463046B1
:102EF80004F0AAF900906063F0B94B2229463046E5
:102F080004F0A2F994F83D300090021E18BF012287
:102F180062F3C30362F3041384F83D30002DBFD07D
:102F280067222946304604F08FF994F83D3060F363
:102F3800020384F83D30B3E74A222946304604F0BC
:102F480083F90090A063D8E770B5144682B0C2E94F
:102F58000001502205460E4604F076F901902062E1
:102F680008B902B070BD53223146284604F06CF906
:102F7800C3B2022B019084F83C30F2D922699AB38B
:102F880092F83800FC2807D813FB00F3C3F3072393
:102F980084F83C30022BE4D931465222284604F00A
:102FA80053F9314602460190284604F037FBC0F336
:102FB8000743A083A377009031465422284604F0A3
:102FC80043F951220346A06331462846009304F092
:102FD8003BF994F83D30003818BF012060F3000336
:102FE80084F83D3002B070BD3146284604F0AEFC8E
:102FF800FC2894F83C30C7D9CCE700BFF0B53C2298
:1030080083B005460E4604F01FF90190F0B900247C
:1030180038223146284604F017F90746019000285F
:1030280043D131466822284604F00EF96922074642
:1030380031462846019704F007F9B842B8BF384628
:103048000028C8BF2418204603B0F0BD04463E221D
:103058003146284604F0F8F8C3B2022B0190D6D9BD
:1030680042223146284604F0EFF804EBD474641089
:1030780001344022019004443146284604F0E4F823
:103088004122074601903146284604F0DDF8002F1A
:10309800B8BF7F4200280190B8BF4042B842ACBFD9
:1030A8002418E41924EAE474B2E73A22314628469F
:1030B80004F0CAF80190C0B20228B2D93B223146C6
:1030C800284604F0C1F80744BC420190B8BF3C460A
:1030D800A7E700BFA0B130B5856883B0044605B145
:1030E800ED6A002301AA1B212046019300F03CF859
:1030F800A268019B52B1D3629D4202D103B030BD98
:10310800FEE7204600F014FE03B030BD002BF3D0DC
:103118002046FFF7ABFAA268019BECE7806800B194
:10312800C06A7047806818B190F83300C0F3810016
:10313800704700BF10B50C4690B1006810B90DE09B
:10314800006858B1C368002BFAD00022E26021461B
:103158009847207EC04300F0010010BD012010BD3B
:103168000B681868EAE700BF30B589B0002866D058
:103178009DF818300291CDE90000002423F00703E0
:103188006846039404928DF8183013F0D7FB04E0D6
:10319800029B2B3B012B41D800940FF035FB30B13B
:1031A8009DF8183013F0020431D1D80730D4009BB1
:1031B8009D6805B1083501226946284613F0CCFB05
:1031C8000128044624D19DF8180010F002001ED1F1
:1031D8006946FFF7AFFF0128044619D19DF818206A
:1031E80012F0020213D16946284613F0B5FB0128F4
:1031F80004460DD19DF81830990708D4009804F0BA
:1032080009FF044618B19DF818305A07C0D50124A3
:10321800684613F09BFB204609B030BD00984FF478
:103228008041FFF709FA0028F1D0029B163B1E2BBC
:10323800B2D8054A22FA03F3DB07E8D4ACE7012445
:10324800204609B030BD00BFF19F785880B12DE904
:10325800F04104460D4616461F46FFF707FAA068D8
:103268003B46324629460830BDE8F04113F0E8BB3A
:10327800FEE700BF8268192A05D8044BD340DB0754
:1032880001D513F02DBC0020704700BF1EDF3B03A3
:1032980083681C3B052B01D90020704713F020BC24
:1032A80008B58368112B01D0002008BD13F018FC65
:1032B8000028F9D0006808BD08B58368122B01D032
:1032C800002008BD13F00CFC0028F9D0006808BDE8
:1032D80083681B2B00D0704710B50C4613F000FC18
:1032E80003689C42B8BF1C46046010BD2DE9F04F2E
:1032F8008BB0914604916E22002105461E4603F0CC
:10330800A3FF6C22074608900021284603F09CFF83
:103318000446012C08904FF06D024FF0000128463A
:10332800A246B8BF4FF0010A03F08EFF012880467D
:10333800BB460890B8BF4FF0010817B9B4F5807FB5
:103348003BD06F220021284603F07EFF70220890B0
:103358000021284603F078FF089A099002F0C0413E
:10336800B1F1005F044647D004F0C042B2F1005FFB
:1033780027D0089A69690A440892AA6922440992DE
:103388007EB908AB86F0010601930498CDF8008059
:10339800029653465A46494612F06EFF0BB0BDE8F6
:1033A800F08F4FF6FF720AEB0201C7F1000B42449F
:1033B800B1FBFAFAB2FBF8F8E3E7B0F5807FC0D1C9
:1033C800ECE724F0C0426FF060418A42D1D0B2F1FC
:1033D800805FA4BF6FF070418A1A05F1140005924E
:1033E80013F04EF8059A02FB00F0124A82FB001215
:1033F800C017C0EB6214BCE722F0C0426FF0604116
:103408008A42B1D0B2F1805FA4BF6FF070418A1ACE
:1034180005F11400059213F02DF8059A099C02FB9A
:1034280000F0044A82FB0012C017C0EB621008903B
:103438009AE700BF1F85EB51F0B5122283B0002137
:10344800044603F001FF302206460021204601967B
:1034580003F0FAFE3422054601900021204603F0CD
:10346800F3FE0021420701904FF01302204648BFA7
:10347800761903F0E9FE3022054601900021204626
:1034880003F0E2FE3422074601900021204603F0B3
:10349800DBFE0307019004F1140048BFED1912F098
:1034A800E9FF801B401B03B0F0BD00BFF0B5102240
:1034B80083B00021044603F0C7FE302206460021EF
:1034C8002046019603F0C0FE3422054601900021F3
:1034D800204603F0B9FE0021820701904FF0110247
:1034E800204648BF761903F0AFFE3022054601900A
:1034F8000021204603F0A8FE34220746019000214F
:10350800204603F0A1FEC307019004F1140048BF50
:10351800ED1912F0B5FF801B401B03B0F0BD00BFD2
:10352800F0B50D46D0E90736D0E9051283B085E835
:103538004E0012220021044603F086FE3022064681
:1035480001900021204603F07FFE342207460190B7
:103558000021204603F078FE2B680190400748BF01
:10356800F61933442B6013220021204603F06CFE29
:103578003022064601900021204603F065FE002116
:10358800074601903422204603F05EFEAB680190A6
:10359800010748BFF6199B1BAB601022002120468B
:1035A80003F052FE3022064601900021204603F027
:1035B8004BFE3422074601900021204603F044FECA
:1035C8006B680190820748BFF61933446B6011227B
:1035D8000021204603F038FE3022064601900021E3
:1035E800204603F031FE3422074600212046019789
:1035F80003F02AFEC307EB6848BFF6199B1BEB6074
:1036080003B0F0BD90B130B583B00D46002301AAD8
:103618000821044603F0D4FE012808D020B900226E
:103628002946204604F028FA03B030BDFEE7019B86
:10363800AB42F4D1F8E700BF90B130B583B00D4686
:10364800002301AA0921044603F0BAFE012808D084
:1036580020B900222946204604F016FA03B030BDEE
:10366800FEE7019BAB42F4D1F8E700BF50B138B593
:1036780015460446FFF7C6FF29462046BDE83840F0
:10368800FFF7DABFFEE700BF90B130B583B00D4653
:10369800002301AA0121044603F092FE012808D064
:1036A80020B900222946204604F0CEF903B030BDE7
:1036B800FEE7019BAB42F4D1F8E700BF90B130B50B
:1036C80083B00D46002301AA0221044603F078FEC8
:1036D800012808D020B900222946204604F0C4F960
:1036E80003B030BDFEE7019BAB42F4D1F8E700BF61
:1036F80050B138B515460446FFF7C6FF294620469F
:10370800BDE83840FFF7DABFFEE700BFE0B110B50B
:10371800044689B2002204F0DFF994F82A3043F015
:10372800010384F82A30204604F0C8FA90F82A20C9
:1037380042F0040280F82A2004F0C8FABDE81040DC
:103748000022382106F0C4BAFEE700BF30B50C49A4
:1037580083B00546FEF778FF10B1002003B030BDF6
:103768000446284604F056FC0028F6D016222146C6
:1037780003F06AFD80B2003818BF012003B030BDE5
:103788000100060090F82A2042F0010208B580F8EE
:103798002A2004F093FA90F82A2042F0040280F8D4
:1037A8002A2004F093FABDE808400022382106F0E8
:1037B8008FBA00BF70B50446164600221D4604F0B5
:1037C8006BF94CB131462046FFF71CFF29462046CD
:1037D800BDE87040FFF730BFFEE700BF58B110B436
:1037E800D0E90542D0E90730C1E90042C8605DF878
:1037F800044B8B607047FEE728B3F0B583B00446EE
:1038080004F008FC0546F8B143696469E41A01F05C
:1038180033FD122204440021284603F015FD30220E
:10382800064601900021284603F00EFD3422074683
:1038380000212846019703F007FD430748BFF61902
:10384800A01B03B0F0BDFEE7606903B0F0BD00BF88
:1038580028B3F0B583B0044604F0DCFB0546F8B1A4
:103868008369A469E41A01F00DFD102204440021C3
:10387800284603F0E9FC302206460190002128463C
:1038880003F0E2FC3422074600212846019703F0A2
:10389800DBFC830748BFF619A01B03B0F0BDFEE7A9
:1038A800A06903B0F0BD00BF70B32DE9F04182B04C
:1038B800044604F0AFFB054638B3A36982699F1A32
:1038C80001F0E0FC102207440021284603F0BCFC6C
:1038D8003022064601900021284603F0B5FC342228
:1038E800804600212846CDF8048003F0ADFC83070C
:1038F80048BF46440190BE1B04F1140012F0C0FDFD
:10390800304402B0BDE8F081FEE7A669F4E700BFE5
:1039180000B5092283B0002103F096FC03B05DF8DE
:1039280004FB00BF10B1143012F0A4BDFEE700BFC5
:1039380010B1143012F0A4BDFEE700BF08B1FFF7C4
:103948007BBDFEE708B1FFF7B1BDFEE708B1FFF7A1
:10395800E7BDFEE70000000000B59FED077B83B0E0
:103968006A4634218DED007BFFF7FEFB009803B01B
:103978005DF804FBAFF3008000000000010000E0E8
:1039880000B59FED077B83B06A4634218DED007B3F
:10399800FFF7EAFB019803B05DF804FBAFF3008082
:1039A800010000E00000000030B5012283B00021D2
:1039B800044603F049FC02220546002120460195F1
:1039C80003F042FC6FF040439D42019001D09842C1
:1039D80017D194F82A3043F0010384F82A3020469E
:1039E80004F06CF990F82A2042F0040280F82A20AA
:1039F80004F06CF90022382106F06AF9012003B0BE
:103A080030BD002003B030BD2DE9F04781460E4699
:103A180017469A4604F04AFB20B380460025D9F899
:103A280008301B684FF4802153F82540BAF1000F85
:103A380003D02046FEF700FE88B9D4E90501D4E991
:103A480007323044394433443A44C4E90501C4E9EF
:103A58000732314600233A462046FFF7D5FF0135A5
:103A6800A845DCD1BDE8F08700283DD02DE9F04716
:103A780099460E461746044603F00108FFF752FB25
:103A880019F0020F05460BD018E02046B8F1000FD8
:103A980012D004F0BFFA044670B1FFF743FB0546A5
:103AA800022DF2D1204600233A463146FFF71EFC8C
:103AB8002046B8F1000FECD1BDE8F087B8F1000F4F
:103AC80009D1022DF8D13A46314620460123BDE8F6
:103AD800F047FFF70BBC204604F09CFA4B463A46E9
:103AE8003146FFF7C1FFECE7704700BF13460122DC
:103AF800FFF7BABFF0B50C46D1E9001589B0CDE99A
:103B080000150291E1680595A568013113460391F6
:103B1800079101356946042204950695FFF7A4FF2D
:103B2800069ADDF810E0DDF808C0009F079B059EA7
:103B3800039D019872451146A8BF71467245B8BFEA
:103B480072466145A8BF61466245B8BF6246B94240
:103B5800A8BF3946BA42B8BF3A46B342A2601A462D
:103B6800A8BF3246B342B8BF3346AA42A8BF2A46C6
:103B7800AB42B8BF2B468242A8BF02468342B8BFB9
:103B8800034621606260E36009B0F0BD2DE9F041B1
:103B98000F4688B001210446FEF74EFD28B14FF0CC
:103BA8000008404608B0BDE8F081204604F086F8D9
:103BB800054604F08BF8064605F050FE854213D002
:103BC800304605F057FE85420ED0304605F076FEA9
:103BD800854209D0304605F059FE854204D030466A
:103BE80005F060FE8542DAD12046FFF797FAA3690F
:103BF8000193E3690293236A03930246636900937E
:103C08000146684612F044F86A463946384612F0CA
:103C18005FF880460028C2D023469A682AB192F8F5
:103C2800332002F00C02082A48D05B68002BF4D13C
:103C3800204604F0EFF904460028B2D004AD012173
:103C48002046FEF7F9FC0028A9D104F1140696E8ED
:103C58000F0085E80F004FF480112046FEF7ECFCBA
:103C6800E8B923469A682AB192F8332002F00C0288
:103C7800082A1DD05B68002BF4D196E80F0085E870
:103C88000F002A463946384612F022F8002886D016
:103C9800204604F0BFF904460028D0D181E7204629
:103CA800FFF73CFA02460146284611F0F1FFD8E733
:103CB800012229462046FFF71DFFE2E70122394687
:103CC8002046FFF717FFB3E730B585B00C46054629
:103CD80003F0FCFF06F06EF808B905B030BD636864
:103CE8000193D4E902232168009128466946CDE969
:103CF8000223FFF74BFF0028EFD0AB682BB193F8F6
:103D0800333003F00C03082B07D0284603F0DEFFFE
:103D1800694605F011F805B030BD05221146684620
:103D280011F0B6FFF1E700BF08B1FFF7CDBFFEE71E
:103D3800B8B110B584B00446FFF7F0F90346D4E9EA
:103D48000601226AC01A01901A445818CDE90202E5
:103D580062696946D31A20460093FFF7B5FF04B09D
:103D680010BDFEE72DE9F04347688DB004460D46C7
:103D78001646002F3DD04FF48021FEF75DFC002849
:103D880000F0C6807B6905EB0309BB6906EB0308F5
:103D980012220021384603F057FA302205460890CF
:103DA8000021384603F050FA3422064608900021D4
:103DB800384603F049FA0021420708904FF01002F4
:103DC800384648BFAD1903F03FFA3022064608903E
:103DD8000021384603F038FA4D44089081463422D1
:103DE8000021384603F030FA830748BF4E44089054
:103DF80046446369ED1AA369F61A55EA06035FD0CB
:103E08002046FFF78BF9A3691B1A0993E36903445A
:103E18000A93236A03440B93636908A91B1A204673
:103E28000893FFF751FFE269236A6069A16902926A
:103E3800039300900191002F45D004A93846FFF75D
:103E48006FFB002204A9684612F0DEF880460028BD
:103E58006ED063692B446361A3693344A361E3694A
:103E68002B44E361236A3344294623623246002304
:103E78002046FFF7C9FD22462A213846FFF774F984
:103E88002046FFF74BF9A3691B1A0993E36903441A
:103E98000A93236A03440B93636908A91B1A2046F3
:103EA8000893FFF711FF002204A904F1140012F08F
:103EB800ABF8B8F1000F00D110B1384602F068FA3B
:103EC8000DB0BDE8F083284431442A44334460618E
:103ED800A161E26129463246236220463B46FFF74C
:103EE80093FD2046FFF71AF9D4E906120244034667
:103EF800091A0A922046226A646909911A4408A993
:103F0800E31A08930B92FFF7DFFE0DB0BDE8F083CC
:103F18003846D7F8149001F0AFF9A9EB00093846F4
:103F2800A944BD6901F0AEF9A5EB0008B0442FE73C
:103F3800384602F02DFA8CE72DE9F04F87B0044699
:103F480004F068F8082200210546204603F07CF9B1
:103F580009220590064600218346204603F074F99D
:103F680007460590002D00F0C78082462846FFF7D7
:103F780063FA00902846FFF799FA06F0C043B3F1B8
:103F8800005F804675D007F0C043B3F1005F4ED0A4
:103F98006A220021204603F057F96B220746059054
:103FA8000021204603F050F9B946064605906CB347
:103FB80004F1140102900846019112F05BFA01998C
:103FC8000390084612F05CFA07F0C041B1F1005FB7
:103FD800029A019000F0988006F0C043B3F1005FA8
:103FE80000F0A9800021924420460A2203F02CF90F
:103FF80010F0FF01D944059009D08B1E072B0ED86D
:10400800DFE803F06158CE5DD3706CBAFEE728464E
:10401800272203F019F90590C0B201284AD0524668
:104028004946204607B0BDE8F04FFFF79BBE27F092
:10403800C0496FF060439945AAD002220021284662
:1040480003F002F96FF040439842059000F0B68003
:10405800B9F1805FC0F286806FF070435A4AA3EBD3
:10406800090308FB03F382FB0312DB17C3EB621A95
:104078008EE726F0C0466FF060439E4283D001224F
:104088000021284603F0E0F86FF04043984205907D
:1040980000F09780B6F1805FA4BF6FF070439E1B5D
:1040A800009B03FB06F6484B83FB063BF617C6EB63
:1040B8006B1B68E7009B039A9F1AB944AFE7019B03
:1040C800A8EB0308C244039B009A03EBD37302EBEB
:1040D800D2775B10C3EB67039944A0E7009B039A70
:1040E8009F1AB944019B03EBD37308EBD8785B1094
:1040F800C3EB68039A4492E702463146204607B06C
:10410800BDE8F04FFFF72EBE27F0C0436FF06041C7
:104118008B423FF461AFB3F1805FA4BF6FF0704191
:10412800CB1A039901FB03F3274981FB0319DB171A
:10413800C3EB691950E726F0C0466FF060439E4212
:104148003FF450AFB6F1805FA4BF6FF070439E1B81
:10415800019B1D4A03FB06F682FB0632F617C6EBE7
:1041680062123FE7184B09FB08F983FB093A4FEA4B
:10417800E979C9EB6A1A0BE7039B0099019A03EBEB
:10418800D37301EBD1775B10C3EB670302EBD272F9
:10419800994408EBD8785310C3EB68039A443EE778
:1041A800019BA8EB0308C24439E7009B039A9F1AB6
:1041B800019BA8EB0308B944C24430E74FF0000A5A
:1041C800E6E64FF0000BDEE61F85EB51B8B110B5FF
:1041D80084B00446FEF7A2FF0346D4E90601226A2A
:1041E800C01A01901A445818CDE90202626969465A
:1041F800D31A20460093FFF7C9FC04B010BDFEE7B0
:1042080038B138B504460D46FEF730FAA3689D620A
:1042180038BDFEE7034630B4D3E905549A6808462A
:10422800D9691B6AC360C0E90054816022B1926AEF
:1042380030BC114611F02CBD30BC704701F0C04CA9
:10424800BCF1005F00B50CD002F0C04CBCF1005FBF
:1042580022D09042A8BF10468842B8BF08465DF8F1
:1042680004FB21F0C04C6FF0604EF445ECD0BCF17B
:10427800805FA4BF6FF07041A1EB0C0C154903FBE4
:104288000CFC81FB0CE14FEAEC7CCCEB611102F0F9
:10429800C04CBCF1005FDCD122F0C04C6FF0604E26
:1042A800F445D6D0BCF1805FA4BF6FF07042A2EB9A
:1042B8000C0C084A03FB0CF382FB03C24FEAE37CB5
:1042C800CCEB62129042A8BF10468842B8BF08469D
:1042D8005DF804FB1F85EB51002800F0C1802DE933
:1042E800F04F90F82B3003F00C030C2B93B00446DE
:1042F80000F0BC8003F08EFE0546002800F0B68072
:1043080094F82B3013F0080140F0B48001222046C5
:1043180002F09AFF00F0C043B3F1005F07460E9029
:104328000646284600F0E580FFF786F86FF0404320
:104338009F42804600F0DE8104220021204602F0E0
:1043480083FF052207460E900021204602F07CFFDD
:1043580039460246434630460E92FFF76FFF94F8FF
:104368002B3013F00401064604F1140700F08E8088
:10437800384612F085F88046384612F07BF88642B7
:104388006FD02046FEF7CAFEA3691B1A0F93E36994
:1043980003441093236A0344119363690EA91B1AFB
:1043A80020460E93FFF790FCA3690793E3690893EF
:1043B800236A09930AA9636906932846FFF7B0F8A8
:1043C80000220AA906A811F01FFE8146002800F065
:1043D8008C80A3694344013B2362272200212046A5
:1043E80002F032FF0E90C0B2012879D063693344DD
:1043F800013BE36106AA31212046FEF7B5FE2246BD
:104408002A212846FEF7B0FE2046FEF787FEA3695C
:104418001B1A0F93E36903441093236A034411930F
:1044280063690EA91B1A20460E93FFF74DFC94F8FA
:104438002A3043F002030AA9384684F82A300022B9
:1044480011F0E2FDB9F1000F00D110B1284601F0DA
:104458009FFF2046FEF73EFE012013B0BDE8F08F17
:10446800FEE7384612F00CF880458AD1002013B0D8
:10447800BDE8F08F04F11407384611F0FBFF94F8FB
:104488002B3013F0040106467FF472AF0222204657
:1044980002F0DAFE00F0C043B3F1005F81460E90EF
:1044A8008046284659D0FFF701F86FF040439945F8
:1044B800834600F0858006220021204602F0C4FED3
:1044C800072281460E900021204602F0BDFE5B4681
:1044D8000246494640460E92FFF7B0FE80464BE73B
:1044E800E3699B1B0133636184E7284601F050FFB1
:1044F8006FE727F0C0496FF0604399453FF414AF68
:10450800FEF79AFF6FF0404A5745804600F0F28068
:1045180095F82B6016F0080600F0E781B9F1805F86
:10452800A4BF6FF07043A3EB0909C04A08FB09F365
:1045380082FB0312DB17C3EB621700211A22204605
:1045480002F082FE1B2206460E900021204602F051
:104558007BFE06440E90BE1BEEE629F0C04A6FF0C3
:1045680060439A459FD0FEF7A1FF6FF040439945FD
:10457800834625D095F82B8018F0040800F079813F
:10458800BAF1805FA4BF6FF07043A3EB0A0AA74A91
:104598000BFB0AF382FB0312DB17C3EB6219002142
:1045A8001822204602F050FE192280460E90002163
:1045B800204602F049FE80440E90A9EB08087AE7ED
:1045C800204600F05FFEA36802900BB100225A62F9
:1045D80010220021204602F037FE30220E90019072
:1045E80000218146204602F02FFE34220E9080469C
:1045F8000021204602F028FE0E90800702D54B4687
:104608004344019311220021204602F01DFE30226E
:104618000E90009000218146204602F015FE0021F0
:104628000E9080463422204602F00EFEC10702D5C5
:104638004B4643440093DFF8FC9100230EAA342133
:104648002046CDE90E93FEF78FFD019B0F9A1A4481
:10465800009B204602EB030803F028FD8246002851
:1046680000F020824A460023CDE903B69946059515
:10467800934611E0336AA2699B1A5D1C1922002136
:10468800304602F0E1FD0E902844834529DD09F10A
:104698000109CA4500F0D980A36865491B6853F829
:1046A80029603046FDF7D0FF0028F0D13046FFF7EB
:1046B8004DF805460028DDD101460A22304602F0B1
:1046C800C3FD10F0FC0F0E90D4D0294609223046C5
:1046D80002F0BAFD05460E90002800F0B981554D4C
:1046E800CCE730461922002102F0AEFD0E9005EB12
:1046F800000BCCE7204600F0BFFDA36801900BB18A
:1047080000221A6213220021204602F09DFD302269
:104718000E90009000210746204602F095FD3422B5
:104728000E9006460021204602F08EFD03070E90EB
:1047380002D53B463344009312220021204602F062
:1047480083FD302283460E900021204602F07CFD36
:10475800342206460E900021204602F075FD4707D8
:10476800344F4FF034014FF0000A0EAA204648BFDC
:10477800B344CDE90EA7FEF7F7FC0E9B009A5B4405
:1047880020469E1803F092FC272281465146204677
:1047980002F05AFDC3B2012B0E9000F00181B9F16D
:1047A800000F00F0F5803A46CDE902865746049599
:1047B800DFF87CA0904610E0F36962699B1A5D1CE3
:1047C8001B220021304602F03FFD0E902844804510
:1047D80032DD0137B94500F0C480A3681B6853F87F
:1047E800276051463046FDF72FFF0028F1D13046AB
:1047F800FEF7ACFF0028DFD101460A22304602F05E
:1048080023FDC3B2072B0E9004D8932222FA03F398
:10481800D907D1D408220021304602F015FD0546FB
:104828000E90002800F02281024DC9E71F85EB5148
:1048380001000400010000E030461B22002102F0C4
:1048480003FD0E9005EB0008C3E7A1685A46DDE9B1
:104858000465DDF80CB011B1029B5B424B62954BCD
:104868009A423FF428AE009B1A449045B8BF904640
:1048780021E602224146284602F0E6FC6FF040435A
:1048880098420E907FF47CAE41461022204602F0FA
:10489800DBFC414681460E903022204602F0D4FCD3
:1048A8004146824634220E90204602F0CDFC00217B
:1048B80082070E904FF01102204648BFD14402F003
:1048C800C3FC302280460E900021204602F0BCFC3A
:1048D800342282460E900021204602F0B5FCC30720
:1048E80048BFD0440E90C844E5E501223146284629
:1048F80002F0AAFC50450E907FF410AE3146122209
:10490800204602F0A1FC314681460E903022204616
:1049180002F09AFC3146342282460E90204602F07C
:1049280093FC002142070E904FF0130220464F4699
:1049380048BF09EB0A0702F087FC302206460E90B2
:104948000021204602F080FC342281460E9000218E
:10495800204602F079FC030748BF4E440E903E44BF
:10496800EAE4544B42469A42DDE90365DDF80880E3
:104978000ED0009B1A44A16811B1019B5B420B62E7
:104988004C4B9A423FF4D8AC9642B8BF1646D3E493
:10499800A368002B3FF4D0AC019A52421A62CBE4D0
:1049A800B9F1000FF4D03A46CDE902855746904652
:1049B800A24611E0DAF81C3062699B1A5D1C1A22C3
:1049C8000021204602F040FC02462A4442450E904F
:1049D8002BDA0137B94531D0DAF8083036491B6887
:1049E80053F827402046FDF72FFE0028F1D1204636
:1049F800FEF7ACFE01460028DCD10A22204602F070
:104A080023FCC3B2082B0E9005D840F2491222FAB3
:104A180003F3D807CED408220021204602F014FC64
:104A280005460E9080B3234DC9E720461A2200217F
:104A380002F00AFC0E9005EB0008CAE71D4B039D27
:104A480042469A42DDF808805446A1D05A4492E77B
:104A580006F1140011F014FD019B29461822C5180F
:104A6800304602F0F1FB0E90054407E606F114000B
:104A780011F000FD29461B2200EB0B05304602F021
:104A8800E3FB0E9005449BE604F1140011F0F2FCE0
:104A9800009B29461A22C518204602F0D5FB0E9025
:104AA80005448CE7A368002B3FF405AD029A5242F7
:104AB8005A6200E5010000E00100040070B50546F7
:104AC80003F0F4FA064648B10024AB681B6853F8B3
:104AD80024000134FFF7F2FFA642F6D195F82A30F8
:104AE800DA0702D49B0710D470BD23F0010385F8C0
:104AF8002A302846FFF7F0FB2846FEF727FE80B14C
:104B0800A6B995F82A309B07EED595F82A3023F0F8
:104B1800020385F82A3028460021BDE8704001F0DC
:104B28005FBC2846FFF708FA002EEAD028460FF0A7
:104B3800A7FCE6E72DE9F04F87B0DDF840800028B4
:104B480000F09780DFF83C951E4699F860300C46D7
:104B580093460546002B00F08E80002C00F0A880BC
:104B6800284603F057FA0746002800F083801222EF
:104B7800002102F069FB3022059002900021824654
:104B8800384602F061FB3422059081460021384600
:104B980002F05AFB0590400702D553464B44029356
:104BA80010220021384602F04FFB30220590019078
:104BB80000218246384602F047FB002105908146D5
:104BC8003422384602F040FB8107059000F1BA8094
:104BD80012220021204602F037FB3022059082463F
:104BE8000021204602F030FB342281460590002146
:104BF800204602F029FB0021420705904FF01002E1
:104C0800204648BFCA4402F01FFB30220590814667
:104C18000021204602F018FB342205900390002161
:104C2800204602F011FB830748BF039B059048BF4D
:104C38009944BBF1000F43D00BF1FF3BBBF1140FBC
:104C480000F21A82DFE81BF04500AE01C5006501DD
:104C580071018E01A701D100EF0002010B012301B0
:104C680035013D015401BF01C801E001F201FA011B
:104C78000702FEE7FEE7012389F8603003F01EF81B
:104C880090F82A305A0707460CD597F82A3023F0AF
:104C9800040387F82A303846FFF710FF97F82A30C0
:104CA8005B07F2D4002389F86030002C7FF458AFFA
:104CB800284603F0AFF9044600287FF451AFFEE719
:104CC80059462722204602F0BFFA0590C0B20128B3
:104CD8007FD006F0C043B3F1005F5ED008F0C04358
:104CE800B3F1005F3DD027220021384602F0ACFA2C
:104CF8000590C0B20128636928D01E447B693846F4
:104D0800F61A00F0CBFA029B0644F61AB244A469DC
:104D1800BB6944443846E41A00F0BAFA019B002201
:104D2800044401212846E41A02F0B6FE51462846FA
:104D3800FEF768FC4C442146284607B0BDE8F04F12
:104D4800FEF77ABC53464B44019341E77A693344F2
:104D580038469E1A00F02EFB029A33189B1A9A4482
:104D6800D5E728F0C04B6FF060439B45BBD004F1FA
:104D7800140011F085FBBBF1805FA8BF6FF0704293
:104D8800BF4BA8BFA2EB0B0B00FB0BFB83FB0B3845
:104D98004FEAEB7BCBEB6818A5E726F0C04B6FF02A
:104DA80060439B459AD004F1140011F063FBBBF1FA
:104DB800805FA8BF6FF07042B14EA8BFA2EB0B0B8B
:104DC80000FB0BFB86FB0B364FEAEB7BCBEB661647
:104DD80084E72046FEF730FB834605F1140011F006
:104DE80049FBABEB000BDA4473E72046FEF724FBE4
:104DF80005F1140383461846039311F03BFBABEB14
:104E0800000BDA442046FEF751FB039B8346184605
:104E180011F036FB00EBD0700BEBDB7B4310C3EBE0
:104E28006B03994455E72046FEF706FB05F114038A
:104E380083461846039311F01DFB00EBD0700BEB73
:104E4800DB7B4210C2EB6B029244DBE705F11400F6
:104E580011F016FB4FF0000AC0F1000939E704F120
:104E6800140011F007FB05F114098246484611F0B9
:104E780001FB00EBD0700AEBDA734FEA600A484690
:104E8800CAEB630A11F0FCFAC0F1000921E704F14A
:104E9800140011F0EFFA05F114098246484611F0A2
:104EA800E9FAAAEB000A484611F0EAFAC0F100094B
:104EB8000FE704F1140011F0E3FA4FF0000A8146FD
:104EC80007E704F11409484611F0D4FA824605F1BF
:104ED800140011F0CFFA00EBD0700AEBDA734FEA46
:104EE800600A4846CAEB630A11F0CAFA8146F0E63E
:104EF80004F11409484611F0BDFA824605F1140080
:104F080011F0B8FAAAEB000A484611F0B9FA81463E
:104F1800DFE62046FEF7CAFA834605F1140011F0D1
:104F2800AFFAABEB000BD944D3E62046FEF784FA80
:104F380005F1140B0390584611F09CFA039A00EB04
:104F4800D07002EBD2724310C3EB620320469A443E
:104F5800FEF7ACFA0390584611F092FA039B1B1A1D
:104F68009944B6E62046FEF767FA05F1140383462E
:104F78001846039311F07EFAABEB000B2046FEF7C0
:104F880095FA039BDA448346184611F079FAABEB9D
:104F9800000BD9449DE62046FEF788FA834605F1C2
:104FA800140035E72046FEF747FA834605F114005A
:104FB80011F060FA00EBD0700BEBDB7B4310C3EB16
:104FC8006B039A4485E605F1140011F053FA4FF08B
:104FD8000009C0F1000A7CE605F1140B584611F0EF
:104FE80049FAC0F1000A04F1140011F049FA8146A7
:104FF800584611F045FA00EBD07009EBD9734FEA27
:105008006009C9EB630964E605F1140B584611F011
:1050180031FAC0F1000A04F1140011F031FA8146A6
:10502800584611F02DFAA9EB000952E604F11400D4
:1050380011F020FA4FF0000982464AE604F11409FB
:10504800484611F017FA8246484611F019FA814687
:1050580005F11400CDE704F11409484611F00AFAE5
:105068008246484611F00CFA814605F1140011F009
:1050780007FAA9EB00092CE64FF00009CA4628E612
:105088001F85EB518833002038B5104D95F86030F6
:1050980003B138BD012385F8603002F00FFE90F8A7
:1050A8002A305A0704460CD594F82A3023F0040312
:1050B80084F82A302046FFF701FD94F82A305B0770
:1050C800F2D4002385F8603038BD00BF8833002053
:1050D80090F85C301B0700D47047006800220E214E
:1050E800FEF742B82DE9F04383B0064602F0DEFF32
:1050F800002865D0334FDFF8D09080460024B3688D
:105108001B6853F8245049462846FDF79DFA014686
:105118001922284639B92D6A02F096F80544AF429B
:105128000190B8BF2F460134A045E8D110220021D4
:10513800304602F089F830220546002101903046B9
:1051480002F082F83422044601900021304602F031
:105158007BF80021820701904FF01102304648BFCA
:105168002D1902F071F830220446019000213046D2
:1051780002F06AF83422804601900021304602F09D
:1051880063F8C3070F4B019048BF44449F4202D0C5
:10519800336A1B1BFF1A3046FEF7F2FB8046304687
:1051A800FEF7C6FBB368401B001BA8EB00000BB161
:1051B8005B6A1844B842B8BF384603B0BDE8F0830C
:1051C800004FB3E7010000E001000400A0B138B5CA
:1051D80004460D46FDF74AFAA26892F8323003F009
:1051E8000301A94209D065F3010382F83230204651
:1051F800BDE83840FEF79CBDFEE738BD38B505462A
:105208000C46FDF733FAAA68538EC3F38311A14203
:105218001CBF64F38913538638BD00BF38B50546F3
:105228000C46FDF723FAAB6893F8322064F3830247
:1052380083F8322038BD00BF38B505460C46FDF767
:1052480015FAAB6893F8322064F3051283F832201C
:1052580038BD00BF836823B193F8320000F0030023
:1052680070470320704700BF83681BB1588EC0F396
:10527800831070470F207047806808B1006A404269
:10528800704700BF806808B1406A4042704700BF5D
:10529800806808B1406A4042704700BF90B12DE96C
:1052A800F04F272283B00021044601F0CDFFC3B29E
:1052B800012B019007D0A06808B1006A404203B0F2
:1052C800BDE8F08FFEE713220021204601F0BCFF65
:1052D80030220346002120469A46019301F0B4FF8C
:1052E8003422054600210190204601F0ADFF00213F
:1052F800020701904FF01202204648BFAA4401F06D
:10530800A3FF3022002101908146204601F09CFF36
:105318003422054601900021204601F095FF4307FD
:105328000190204648BFA94402F0C0FE0646002866
:105338003AD0DFF87C806FF060470025A3681B68CF
:1053480053F825B041465846FDF77EF901461A2222
:10535800584649B9DBF814B001F076FFABEB000B07
:105368005F450190A8BF5F460135AE42E6D16FF0B8
:1053780060439F4218D063694B44DF1B2046FEF709
:10538800EBFA05462046FEF7CDFAA268A0EB0A0321
:10539800A3EB0903E81A0AB1136AC01AB842B8BFE6
:1053A800384603B0BDE8F08F004FE7E7010000E0A2
:1053B8000100040090B12DE9F043272283B00021B9
:1053C800044601F041FFC3B2012B019007D1A06848
:1053D80000286BD0006A03B0BDE8F083FEE72046E2
:1053E80002F064FE334F8046C8B1DFF8CC90002548
:1053F800A3681B6853F8256049463046FDF724F931
:1054080001461B22304639B9F66901F01DFF0644F2
:10541800B7420190B8BF37460135A845E8D11322F5
:105428000021204601F010FF30220646002101909D
:10543800204601F009FF342205460190002120464C
:1054480001F002FF0021020701904FF012022046EE
:1054580048BF761901F0F8FE3022019080460021FD
:10546800204601F0F1FE3422054601900021204635
:1054780001F0EAFE43070F4B019048BFA8449F4242
:1054880002D0E3699B1BFF1A2046FEF765FA054622
:105498002046FEF747FAA268831BA3EB0803E81A25
:1054A8000AB1136A1844B842B8BF384603B0BDE819
:1054B800F08300BF010000E00100040038B50C468D
:1054C8001149054610F0C2FA58B1C36A5B420F4948
:1054D8002360284610F0BAFA78B1C36A5B42636069
:1054E80038BDAB68002BF2D01B6A08495B422360C9
:1054F800284610F0ABFA0028EFD1AB68002BEED0AD
:105508005B6A5B42636038BD7555000865550008E5
:1055180051EA020370B502D10125284670BD044640
:1055280015460E46FDF7A2F8A3681A6A32441A62B5
:105538005A6A2A445A6231462A4601232046FEF70F
:1055480063FA00220F212046FDF70EFE01280546CA
:10555800E3D12046FEF7ECFB284670BD83680A4677
:105568000BB15B6ACA1A0021FFF7D2BF83680BB17F
:105578001B6AC91A0022FFF7CBBF00BF2DE9F04113
:10558800044698B016460D46B9BB9AB3B3B302F0B9
:105598009DFB6F468046384610F096F921463846FE
:1055A80010F0F8FA4449384610F00AFB404604F077
:1055B8008FF84FF4C872C821401010F067FA0146FE
:1055C800384610F0EBFAA16809B1496A0E44324630
:1055D800384610F0E9FA3949384610F0DDFA38490A
:1055E800384610F0E7FA3A460C212046FDF7BCFD94
:1055F80001285CD018B0BDE8F081EBB92F492046EE
:1056080010F0D8F92F49204610F0D4F900220C21C7
:105618002046FDF7A9FD0128ECD13246294620464F
:10562800FFF776FF0128E5D100220E21204618B0A9
:10563800BDE8F041FDF798BD02F048FB6F46804693
:10564800384610F041F92146384610F0A3FA1A49B5
:10565800384610F0B5FA404604F028F84FF4C872FE
:10566800C821401010F012FA0146384610F096FA98
:10567800A16809B1096A0D442A46384610F094FA1F
:105688001049384610F088FA0D49384610F092FA59
:105698003A460C212046FDF767FD0128AAD1384675
:1056A80010F02CF9002E81D118B0BDE8F0813846F1
:1056B80010F024F99EE700BFD9500008655500088E
:1056C800095B0108755500082DE9F043984651EA31
:1056D800020383B002D103B0BDE8F08305460F464C
:1056E8001646FFF7D1FCAC6814B1246A274464421B
:1056F80027220021284601F0A7FD0190C0B2012809
:1057080015D0002F24DBAF68002F3ED07B6AF61837
:10571800C3F100072DD454EA0703DCD043463A46C8
:105728002146284603B0BDE8F043FFF727BF002F06
:10573800E9DD2846FFF7B2FD81462846FFF73AFE25
:10574800484420EAE070B842D4BF2418E419DAE7E4
:105758002846FFF7A3FD81462846FFF72BFE48445D
:1057680020EAE0704042B842ACBF2418E419CAE706
:1057780010D02846FFF7B6FC384420EAE0704042D3
:10578800B042ACBF3F18BF19C5E7002EF0DD002CB2
:10579800A1D0C3E7002C9ED03746BFE72DE9F041E2
:1057A80005460E460749174610F004F9AC680CB1D7
:1057B800246A64423B46A11B28460022BDE8F0410A
:1057C800FFF782BF755500082DE9F04105460E46E2
:1057D8000749174610F0EEF8AC680CB1646A6442E9
:1057E8003B46A21B28460021BDE8F041FFF76CBFED
:1057F800655500082DE9F04104460F460F49164645
:105808001D4610F0D7F8A06808B1006A4042C11BD5
:105818002B4620460022FFF757FF0949204610F083
:10582800C9F8A16809B1496A49428A1B2B46204632
:105838000021BDE8F041FFF747BF00BF75550008DC
:10584800655500082DE9F04F8DB0814608468B4616
:105858001646019302F0DEFB10210446FCF7ECFE2D
:10586800002800F0FD80A368002B00F08381598E8A
:1058780093F83220C1F38313C1F380110691C2F368
:105888000111029103F00201079112F0300F03F0A9
:10589800040103F008030891099340F0DE80CA462A
:1058A80010220021204601F0CFFC302207460B9041
:1058B8000021204601F0C8FC342205460B90002147
:1058C800204601F0C1FC11220B90002180072046E0
:1058D80048BF7F1901F0B8FC302280460B900021A8
:1058E800204601F0B1FC002105460B9034222046E9
:1058F80001F0AAFCC10748BFA844A569DAF804204A
:10590800236A0B903D44AD1ADAF80C20A3EB080388
:105918009B1A72682046D11AAD1ACDE90323059166
:10592800FEF706F8002DDDE903230146C0F2A48046
:10593800059B002BC0F2FB800025029B022B00F088
:105948001181032B00F0B780012B00F0A980A36818
:10595800002B00F0AE8093F8323013F00C0FC3F335
:10596800810A01D00BF1140912220021204601F00E
:105978006BFC302280460B900021204601F064FC2D
:10598800342207460B900021204601F05DFC0021DF
:1059980042070B904FF01302204648BFB84401F06D
:1059A80053FC302283460B900021204601F04CFC2A
:1059B800342207460B900021204601F045FC0307DE
:1059C80048BFBB446769D9F80020E3690B90474496
:1059D800BF1AD9F80820A3EB0B039B1A3268BF1A29
:1059E800A2EB03013FD40029C0F29780002720468C
:1059F800FDF798FFBAF1020F00F08880BAF1030FA3
:105A08006ED0BAF1010F45D0634920460FF0D2FF9E
:105A1800624920460FF0CEFF069B0BB927EAE777CD
:105A2800079B0BB907EAE777089B0BB925EAE575E9
:105A3800099B0BB905EAE5750199D6E9002309B177
:105A48003A442B44C6E90023019B2A46394620469E
:105A58000DB0BDE8F04FFFF791BD0BF1140A1FE739
:105A68000DB0BDE8F08F0029C0DD20469F1AFFF772
:105A7800A1FCC742BBD5B9E7059800287FF75CAF02
:105A8800204603919D1AFFF72DFBC54203997FF528
:105A980054AF51E76769D9F800304744FF1AB3E7B4
:105AA800A569DAF804303D44ED1AA368002B7FF4A9
:105AB80052AF9A4658E7A569C91BA1EB080101EB4B
:105AC800D1713D44504605EB610510F0D9FCDAF878
