:020000040800F2
:1000000000000220A90B0008110B0008150B0008C6
:10001000190B00081D0B0008210B00080000000050
:10002000000000000000000000000000250B000898
:10003000290B0008000000002D0B0008310B000800
:10004000F90B0008F90B0008F90B0008F90B000880
:10005000F90B0008F90B0008F90B0008F90B000870
:10006000F90B0008F90B0008F90B0008F90B000860
:10007000F90B0008F90B0008F90B0008F90B000850
:10008000F90B0008F90B0008F90B0008000000004C
:10009000000000000000000000000000F90B000854
:1000A000F90B0008F90B0008F90B0008F90B000820
:1000B000F90B0008F90B0008F90B0008F90B000810
:1000C000F90B0008F90B0008F90B0008F90B000800
:1000D000F90B0008F90B0008F90B000800000000FC
:1000E000F90B0008F90B0008F90B000800000000EC
:1000F000000000000000000000000000F90B0008F4
:1001000000000000F90B0008F90B0008F90B0008CB
:1001100000000000000000000000000000000000DF
:10012000F90B0008F90B0008450B0008F90B000853
:10013000F90B0008000000000000000000000000B3
:10014000000000000000000000000000F90B0008A3
:10015000F90B0008F90B0008F90B0008F90B00086F
:10016000F90B0008F90B0008000000000000000077
:10017000000000000000000000000000000000007F
:1001800000000000F90B0008000000000000000063
:08019000F90B0008F90B00084F
:1001980010B5054C237833B9044B13B10448AFF3B9
:1001A80000800123237010BD5801002000000000CA
:1001B8001490020808B5034B1BB103490348AFF379
:1001C800008008BD000000005C01002014900208B7
:1001D80010F8012B11F8013B012A28BF9A42F7D0E9
:1001E800D01A7047034613F8012B002AFBD1181ABE
:1001F8000138704753B94AB9002908BF00281CBF05
:100208004FF0FF314FF0FF3000F088B9ADF1080C26
:100218006DE904CE00F006F8DDF804E0DDE902231C
:1002280004B070472DE9F047089D8E46044688467D
:10023800002B4AD18A42174662D9B2FA82F64EB1E9
:10024800C6F1200301FA06F820FA03F3B74043EA9F
:100258000808B4404FEA174E1FFA87FCB8FBFEF1B6
:10026800230C0EFB118843EA084301FB0CF29A4267
:1002780009D9FB1801F1FF3080F0EA809A4240F278
:10028800E78002393B449A1AA3B2B2FBFEF00EFB98
:10029800102243EA024300FB0CFC9C4509D9FB18D9
:1002A80000F1FF3280F0D6809C4540F2D3803B4479
:1002B800023840EA0140A3EB0C0300211DB1F340D2
:1002C8000022C5E90032BDE8F0878B4205D90DB19F
:1002D800C5E9000100210846F5E7B3FA83F10029D2
:1002E80046D1734502D3824200F20581841A6EEB2F
:1002F800030201209046002DE5D0C5E90048E2E759
:10030800002A00F09080B2FA82F6002E40F0A48015
:100318008A1A030C4FEA174E80B2BCB20121B2FB15
:10032800FEFC0EFB1C2243EA024304FB0CF29A4239
:1003380007D9FB180CF1FF3802D29A4200F2E0808C
:10034800C4469B1AB3FBFEF20EFB123340EA03438A
:1003580002FB04F49C4207D9FB1802F1FF3002D2D9
:100368009C4200F2CA8002461B1B42EA0C40A5E7E9
:10037800C1F120068B4022FA06F71F430EFA01F45A
:1003880020FA06F32EFA06FE4FEA1749234300FA2D
:1003980001F81FFA87FCBEFBF9F01C0C09FB10EEF4
:1003A80044EA0E4400FB0CFEA64502FA01F209D904
:1003B8003C1900F1FF3A80F09C80A64540F29980F4
:1003C80002383C44A4EB0E041FFA83FEB4FBF9F395
:1003D80009FB13444EEA044403FB0CFCA44508D96A
:1003E8003C1903F1FF3E80F08280A4457FD9023B8F
:1003F8003C4443EA0040A4EB0C04A0FB02EC644537
:100408007346E14662D35FD05DB1B8EB030264EB9B
:10041800090404FA06F622FA01F31E43CC40C5E9A2
:10042800006400214FE7B1FBF2FC010C41EA0E41E8
:1004380080B240EA01423B4638463C46B846BE4692
:100448002026B1FBF7F1A2EB080241EA0C4166E76E
:10045800014618E710462CE7C6F120022EFA02F3EF
:10046800B740B14020FA02F24FEA174E0A43B3FBF5
:10047800FEF8BCB20EFB1833110C41EA034108FB2D
:1004880004F9B04089454FEA104380B23ED9791843
:1004980008F1FF3C01D289451FD8A1EB0901B1FB46
:1004A800FEF909FB04F80EFB191192B242EA014267
:1004B800424529D2BA1809F1FF31C4D24245C2D205
:1004C800A9F102013A44BEE7F0459DD2BEEB020312
:1004D8006CEB070C0138E14696E7A7EB090949449C
:1004E800A8F1020CB1FBFEF909FB04F8DBE773463F
:1004F8007FE7504666E70846FDE63B44023A33E7A5
:10050800ACF1020C3B441CE749469CE7A1EB09010E
:10051800C446B1FBFEF909FB04F8C4E7704700BF05
:10052800014B1960704700BF74010020B1F9043015
:10053800002B12DB30B50446B1F90600002885B05F
:1005480009DBB1F900C0BCF1EF0F04DCB1F902100E
:10055800B1F5A07F02DB05B030BD7047401A01300D
:1005680080B20090A3EB0C030848019201250133E7
:10057800006802958AB29BB21FFA8CF100F04CFE1B
:10058800204605B0BDE8304013F084BA6827002043
:100598002DE9F04F2F4BDFF8F0A0DFF8F0902E4E4A
:1005A80080460FCB9DB00DF13C0C8CE80F002B4B17
:1005B80018930225CDE915531A9303F5C8431493EC
:1005C8000823ADF85C300423ADF86430244A139254
:1005D8001023ADF86C309CE80F000DF1280E8EE862
:1005E8000F00204B059300241F4BCDF818900DF1F8
:1005F8004C0BCDE907AB0493CDE901444FF4A07748
:1006080009950395F02300973A4619463068174D27
:1006180000F010FC3060164E00F01AFD1549164A1D
:100628004FF41663304613F053F9284613F02AF9AD
:10063800124B6B612B7C124A2A6268F30513114A2C
:10064800EE6028462A602B746C8113F04FF91DB0B8
:10065800BDE8F08F2C9002086827002000000240B7
:1006680000300140B91200089D120008F826002049
:1006780044270020381400207801002035050008A0
:1006880029050008F00040010913000801130008BB
:1006980009B21DF0F5B800BFC0F10702031D042A16
:1006A80028BF0422062B4FF0FF3303FA02F38CBF56
:1006B8000338002021EA030101FA00F0704700BF67
:1006C80010B594B013F0AEF901F02AF81CF0ACFBA9
:1006D8004FF4877104461DF0CFF820464FF4B472EA
:1006E80000211DF0BDF820464FF44032002106F0ED
:1006F800CDFD00231A460921204603F069F9684612
:1007080014F0FCFF9FED0C7B8DED087B9FED0C7BBF
:100718000D494FF6FF724FF4FA736846CDE9004170
:100728008DED0A7BADF840200F9315F055F814B005
:1007380010BD00BFAFF30080000000000000000003
:1007480064000000E8030000990600082B4A1368BB
:1007580023F0070343F0030310B51360136803F095
:100768000703032BFAD12649264A0B6843F4404372
:100778000B60136843F48033136013689903FCD546
:1007880050682149214B01400B43536053681D4970
:1007980023F440335360136843F0807313600B688D
:1007A8009A01FCD5164A53685B04FCD5154CA3681E
:1007B80023F0F003A360A36823F4E05343F48053C9
:1007C800A360A36823F46043A360A36823F0030332
:1007D80043F00203A360A36803F00C03082BFAD1CB
:1007E8000B4800F087FF0A4800F094FFD4F88C30DB
:1007F80023F08073C4F88C3010BD00BF003C024069
:1008080000700040003802400080BFFF0C18400014
:1008180000E1F50580B5B249B24B0A68B24C42F422
:10082800E0629EB00A605A6C42F480425A645A6C84
:1008380002F480420192019A1A6C42F080521A64C2
:100848001B6C03F080530093009BE268A74B4FF6A4
:10085800FF010A401343E360E0680F21C0F3022060
:10086800FFF71AFF0301DBB284F82330FFF76EFFAE
:100878009F4BA04A1B68A2FB03239B09013BB3F1D2
:10088800807F09D24FF0E022F02053610021072336
:1008980084F82300916113610024CDE91744914D38
:1008A80019942B6B944F43F080032B632B6B03F04D
:1008B80080030793079B2B6B43F001032B632B6B80
:1008C80003F0010308931C22089BBA6101231C2230
:1008D80014A94FF002084FF001093846CDE9142356
:1008E800CDF85880CDF8609000F00EFD2B6B7E4A55
:1008F80043F480032B632B6B03F480030693069B5E
:10090800D0682146C0F30220FFF7C6FE7B4A0301E8
:10091800DBB282F83A334FF08063536028222146D5
:1009280014A828F0DDFACDE911446B6C744E43F439
:1009380080536B646B6C03F480530493049B2B6BA0
:1009480043EA09032B632B6B03EA09030593059B11
:10095800032310930523A02213930EA902233846DC
:10096800CDE90E2300F0D0FC664B1A6C22F06062D1
:1009780042F080621A641A6C22F0C00242F040020F
:100988001A641A6C22F440321A641A6C22F49072B7
:100998001A641A6C22F400721A641A6C42F48062A7
:1009A8001A641A6C22F4C05242F400621A641A6C77
:1009B80022F4C04242F400521A645A6D22F0040232
:1009C8005A654FF482714FF40063CDE915134FF463
:1009D80000730022199314A90A233046CDE91C2379
:1009E800CDE91744CDE91A44149400F033FD736837
:1009F80023F0100373602022214614A8ADF8364076
:100A0800CDF82640CDF82A40CDF82E40CDF832401A
:100A180028F066FACDE90E44CDE91044CDE9124438
:100A28002B6C43EA08032B642B6C03EA080302933C
:100A3800A6F59636029B40F2E733ADF8243009A9B3
:100A4800F92330460B9300F03DFD3368494623F007
:100A580080034FF080493360D9F81834602043F0A0
:100A68000803C9F8183414AA7D23CDE914043046C4
:100A780017931694189400F06BFDD9F8183423F0E6
:100A88000403C9F81834736823F070037360B368FB
:100A980023F08003B3602B6B43F001032B632B6BB4
:100AA800CDF83C8003F001030393039B402300220D
:100AB8000EA90E9338460223CDE91223CDE910443E
:100AC80000F022FC02F05CF82046FFF761FDFFF71A
:100AD800F7FD012000F004F917F0EEF9F9E700BF7F
:100AE800003C02400038024000ED00E00003FA0537
:100AF80000000020D34D62100000024000E100E039
:100B08000030014000640240FEE700BFFEE700BF7E
:100B1800FEE700BFFEE700BFFEE700BF704700BF6B
:100B2800704700BF704700BF034A136801200344A1
:100B3800136012F0CDBF00BF6027002001480221DA
:100B480000F058B8006402400C490D4A0B6810B513
:100B58000C4C121B2BB11844904207D80860184659
:100B680010BD094B0B6018449042F7D928F0D0F912
:100B78000C2303604FF0FF33184610BD6427002094
:100B88000000022000040000A08C0020034AD2F8D4
:100B9800883043F47003C2F88830704700ED00E0F5
:100BA800DFF834D00D480E490E4A002302E0D4582D
:100BB800C4500433C4188C42F9D30B4A0B4C00239D
:100BC80001E013600432A242FBD3FFF7DFFF28F0F5
:100BD800A5F9FFF71FFE7047000002200000002063
:100BE800580100208CB7020858010020A08C002072
:100BF800FEE7000030B5384B84460A4693E8030008
:100C080083B002AB03E9030002F1080169443F2302
:100C180011F8081C8B403149032A8CBF0CF10C00D9
:100C28000CF108000C6803602CB1A36A9C4504D041
:100C3800246F002CF9D103B030BDE36A9A42F7D192
:100C4800236C23B15B69B4F844101942F0D102EB6C
:100C580042020CF1100CD1000CEBC2025CF801301E
:100C680023F001034CF80130136813F00103FBD1A2
:100C7800256E65B1B5F5803F27D255605CF8012037
:100C8800236642F001024CF8012003B030BDE36D49
:100C98002BB172B6E06D28F053F8E56562B6626A6A
:100CA800536823F00203536093681B06FCD494F83E
:100CB800653023B9236C13B1B4F8441099611368F3
:100CC80023F04003136003B030BDA5F57F434FF612
:100CD800FF70FF3B5060D1E73C9002086827002076
:100CE800421C4FF0E02318BF01301B694FF0E0228F
:100CF80028B11369DB03FCD501380028F9D1704706
:100D0800016BE9B110B4848E4FF0E02223048B61AB
:100D18001A20136928B11369DB03FCD501380028B0
:100D2800F9D14FF0E0228C611A21136929B11369B6
:100D3800DB03FCD501390029F9D15DF8044B704774
:100D4800704700BF70B5446A23685B06FCD490F80E
:100D580065302BB9036C1BB1B0F8442012049A61BA
:100D6800236823F42C432360236843F040034FF0A7
:100D7800E02E23600B78012B29D0022B4AD0002BC0
:100D88003BD1828F436A866B4D781204B2611D7322
:100D98009A689607FCD59A681506FCD48B7801F1F9
:100DA800030C002B44D003331944436A856B1CF8A9
:100DB800012B868FAE611A739A689207FCD59A68E0
:100DC8001606FCD48C45F0D10B78012BD5D14B7885
:100DD80001F1020C63B302331944436A866B1CF8B1
:100DE800012B858FB5611A739A689507FCD59A68A7
:100DF8001206FCD48C45F0D1BCE790F8653023B9D5
:100E0800036C13B1B0F844209A61236823F04003BF
:100E1800236070BD4A78DEF81030013232B1DEF856
:100E28001030DB03FBD5013A002AF8D10231A1E7E3
:100E380061469FE72DE9F04F83B01F46BDF9343076
:100E480000930646BDF93830BDF830A09DF83C90B7
:100E58009DF854B00193884674200121154627F067
:100E680053FF002800F0A380DDF850C080F848B098
:100E7800044600F1240EBCE80F00AEE80F00BCE801
:100E88000F00AEE80F00DCF80030CEF80030A36A9F
:100E9800ABB1E26A02EB420203EBC203BBF1020F01
:100EA8001A696FF30F0203F110011A6177D01A69FA
:100EB80042F48A621A614B6923F080034B6145450D
:100EC8002A4638BF4246454528BF4546B9F1030F73
:100ED8006AD8DFE809F055025502B9F1010F6BD065
:100EE800019BAAEB03039B1A28463946009D0195EE
:100EF8001BB215465746009302468A46009B6381FB
:100F0800019BA3810023194665F30F0167F30F03C3
:100F18006AF31F4362F31F41BD422360616043D8F7
:100F2800524541D8109B002B3ED0119B002B3BD043
:100F3800109A6261119AA261129AE26116AB139A31
:100F480022620FCB002704F14C0584F8089085E84D
:100F58000F00C4E91B7784F864706EB1336F4BB12E
:100F680001221E461B6F511C1046CAB2002BF8D135
:100F780084F86400E6663467204603B0BDE8F08F65
:100F8800B9F1000FBAD0009BF91A019BAAEB030331
:100F9800491B9B1A09B21BB200910193AEE71A696B
:100FA80042F420521A6182E7204627F0C9FE002445
:100FB800204603B0BDE8F08F009BFB1A5B1B284658
:100FC8003946019D00951BB21546574601930246C6
:100FD8008A4693E76429C26C0B4628BF642380F8CD
:100FE8005A3022B3D16A10B401FB03F3174C016DD8
:100FF800A4FB0343B1F5807F4FEA531324D011D8E3
:1010080001291FD0102900D193631368DB0706D488
:10101800136A19431162136843F0010313605DF802
:10102800044B7047B1F5805FEFD11364EDE7436D72
:1010380023B1B0F8582011B19A6170477047120473
:101048009A6170475363E0E7D363DEE71F85EB518E
:1010580010B50446FFF754FE6369207A98470146A5
:101068002046FFF76FFE94F85A10BDE81040FFF7CE
:10107800B1BF00BF436A70B516461A685206FCD461
:1010880090F865402CB9056C1DB1B0F844201204E5
:10109800AA6190F8662012B9826B858F95611A68EB
:1010A80022F42C421A6090F84820022A1A6820D0AC
:1010B80042F040025FEA460C1A6018BF01EB0C04CC
:1010C80009D011F8012B1A739A689507FCD58C4240
:1010D800F7D190F865409A681206FCD424B9026CDE
:1010E80012B1B0F8441091611A6822F040021A60F7
:1010F80070BD42F400621A601A6842F040021A6039
:1011080006F1FF3E002EE6D031F8022BDA609A682D
:101118009607FCD5BEF1010EF6D29A681206DAD40B
:10112800DCE700BFF0B5876A83B0002F6CD00E46AD
:1011380090F84810446A01291546844608BF5500AE
:10114800236813F04003FBD19CF8650030B9DCF844
:10115800400018B1BCF84420120482619CF8662053
:1011680022B9DCF83820BCF83C0090612268CCF841
:10117800605022F42C420229226040D02168254880
:10118800DCF82C2041F04001216003C80DF1080E65
:101198000EE90300032A02EB420002F108026A4446
:1011A80007EBC00012F808EC8CBF0C3708373F2259
:1011B80002FA0EF23A60626800F1100142F002028F
:1011C80062600C348C60CE60026922F400720261A5
:1011D8000269B5F5803F42F4806202610DD34FF693
:1011E800FF72A5F57F434A60FF3B0269CCF8603087
:1011F80042F00102026103B0F0BD4D60F5E72268DC
:1012080042F400622260B9E703B0BDE8F040FFF79E
:1012180031BF00BF3C9002082DE9F8431D46838882
:10122800BDF82060DDF824909DF828808B420446A4
:101238000AD90846E188914206D900EB050C9C457D
:1012480002DC93198B4201DDBDE8F883A189B4F86B
:101258000AC0A769731E13440B4411446A1E024452
:101268006244604492B29BB289B280B2B8470146E8
:101278002046FFF767FD06FB05F24946B8F1000F67
:1012880003D0BDE8F843FFF74DBFBDE8F843FFF7CB
:10129800F1BE00BF03289CBF034B1B5C034888BFFB
:1012A800002380F8413070477C9002082800002015
:1012B80000B54FEA102C4FF0000E6CF3070E60F3E8
:1012C8000F2E100A60F3174E62F31F6E4FF0000CDA
:1012D8000A0A62F3070C61F30F2C1A0A054862F335
:1012E800174C63F31F6CC0F803E0C0F80AC05DF840
:1012F80004FB00BF14000020004870470C000020C9
:1013080000487047040000202DE9F04F0D6895FA59
:10131800A5F2002A00F08D80B2FA82F235FA02F3C3
:1013280000F087804FF0010C4FF0030E4FF00F0BC9
:1013380017E0076893FAA3F434B1B4FA84F46400AC
:101348000EFA04F427EA040793FAA3F323B1B3FAD5
:1013580083F35B009E4037430760013235FA02F39E
:1013680067D00CFA02F32B40F7D04E68741E012C9C
:101378003DD993FAA3F4D1F81090C76834B1B4FA00
:1013880084F464000EFA04F427EA040793FAA3F439
:1013980034B1B4FA84F4640009FA04F947EA090795
:1013A800022EC760C5D193FAA3F4D1F814901CB1EA
:1013B800B4FA84F4072C3FDD1C0A476A94FAA4FAAD
:1013C800BAF1000F07D0BAFA8AFA4FEA8A0A0BFA7A
:1013D8000AFA27EA0A0794FAA4F434B1B4FA84F4AE
:1013E800A40009FA04F947EA09074762A1E7D1F816
:1013F8000890876893FAA3F434B1B4FA84F46400CB
:101408000EFA04F427EA040793FAA3F434B1B4FA01
:1014180084F4640009FA04F947EA09078760446814
:1014280024EA0308CC6803FB04F448EA0404446093
:101438009FE70020BDE8F08F076AA4004FF00F0A6D
:1014480009FA04F90AFA04F427EA040747EA09073B
:1014580007626EE703685B06024629D430B4146855
:101468000B684D68486924F47F4C8C682B432343F0
:10147800CC6823430C6923438C6903432343CC6919
:1014880023430C6A2CF0BF0C234343EA0C0313607C
:10149800536823F0040343EA1043B4F5005F536034
:1014A8000CD0D36923F40063002030BCD3617047AB
:1014B800D36923F400630120D36170478B8C1361D7
:1014C800EFE700BF30B4204D8C6803680A88A84253
:1014D8002CD0B0F1804F17D0A5F57C45A84213D089
:1014E80005F58065A8420FD005F58065A8420BD0A8
:1014F800164DA8420CD005F58065A84208D005F520
:101508008065A84208D103E04D6823F070032B439F
:10151800C96823F440730B430360C4628262436961
:1015280043F00103436130BC002070474D6823F04D
:1015380070032B43CD6823F440732B430360C462CC
:1015480082620B690363EAE7000001400040014042
:10155800B1F5807F30B44CD025D8012967D0102947
:1015680044D1036A156923F010030362036A4468CF
:10157800816923F0200343EA0513156821F4E64145
:1015880041EA0521556823F0100343EA0513584D35
:10159800A84200F09180D26844608161826303624E
:1015A800002030BC7047B1F5805F1FD1036A156910
:1015B80023F480530362036A4468C16923F4005327
:1015C80043EA0533156821F4E64141EA05215568E7
:1015D80023F4805343EA0533454DA84200F0818047
:1015E800D2684460C16102640362D9E7012030BC5B
:1015F8007047036A156923F480730362036A4468B9
:10160800C16923F4007343EA0523156821F07301C7
:101618002943556823F4807343EA0523344DA842CF
:1016280035D0D2684460C161C2630362B8E7036A17
:10163800156923F001030362036A4468816923F092
:1016480002032B43156821F073012943556823F0E1
:1016580001032B43264DA84205D0D268446081611E
:10166800426303629CE7556923F0080343EA850354
:10167800956924F480742C43956823F0040343EAA5
:101688008503D56924F4007444EA4504E5E75569FF
:1016980023F4006343EA8523956924F4805444EADB
:1016A8000514956823F4806343EA8523D56924F4F7
:1016B800005444EA4514B4E7556923F0800343EA2B
:1016C8008513956924F4806444EA8504956823F0B9
:1016D800400343EA8513D56924F4006444EAC50449
:1016E80059E7956924F4804444EA851478E700BFF3
:1016F80000000140064BA3FB00239B094FF0E022AA
:10170800013B00200521536190611161704700BFC2
:10171800D34D6210014B1860704700BF00000020D5
:1017280008B10069704708B512F07CF900B100698A
:1017380008BD00BF08B14069704708B512F072F9DA
:1017480000B1406908BD00BF08B1C069704708B55D
:1017580012F068F900B1C06908BD00BF08B1006A9D
:10176800704708B512F05EF900B1006A08BD00BF05
:1017780008B18068704708B512F054F9806808BD50
:1017880008B530B1D0F854010028D4BF002001209A
:1017980008BD12F047F90028F4D108BD10B50C4671
:1017A80090B1006810B90DE0006858B10369002BCA
:1017B800FAD00022E26021469847207EC04300F01C
:1017C800010010BD012010BD4B681868EAE700BF92
:1017D800F8B5054600F0DAFA58B1006883680BB12D
:1017E800297A98472B7E980700F19980D90700F14C
:1017F80094806E68B368002B3CD09A7E920639D0EC
:10180800DB68002B36D01A6800242AB193F9081037
:1018180093F808C0002915DBB368013404EB4401D0
:1018280043B39A7E02F03F02944223D2DB6803EB73
:1018380081031A68002AEFD093F9081093F808C0BA
:101848000029E9DABCF1800F28462CF0800102D08B
:101858002F7AB942E0D15B68EB6090472B7E9F07F7
:101868005DD4DE0759D46E68B368013404EB4401D3
:10187800002BD6D129460020FFF790FF024600280A
:101888004BD06E68B368002B4BD0997E8C0648D03D
:10189800DB68002B45D0012808BF002410D03BE0AE
:1018A800297AB94217D0B368013404EB44010BB369
:1018B8009A7E02F03F0294421CD2DB6803EB81035C
:1018C8001A68002AEFD093F908101F7A0029EADB7A
:1018D8002846002FE4D15B68EB6090472B7E980781
:1018E8001DD4D90719D46E68B368013404EB4401D8
:1018F800002BDDD1736893B12A7E52070FD42A7A60
:10190800243A012A10D86B602846FFF761FFA0F13E
:101918000100B0FA80F04009F8BD0020F8BD0120B0
:10192800F8BD012AE6D0F8BD4FF48041304601F0F9
:1019380003FA0028F3D02B7A123BDBB21B2B04D816
:10194800034A22FA03F3DB07E9D46B685B68DAE73A
:10195800FF270F0BD0B130B589B00D4C9DF818306A
:101968008DF80810CDE900002068059023F00703E2
:10197800002568468DF8183003950492C4F800D005
:10198800FFF726FF059B236009B030BD0120704793
:101998006C2700200068704740687047007A00F0A4
:1019A8007F00704700697047C0687047094B1B6823
:1019B8002BB90EE01A68824204D05B694BB15A68B1
:1019C8008242F7D11A7E42F001021A765B69002B37
:1019D800F5D170476C2700202DE9F04107461C46D9
:1019E8000E46154601F0BAF9D7F8088098F81AE0BB
:1019F800D8F80C000EF1010C0CF03F0C6CF3050E3E
:101A08000CEB4C0C88F81AE04FEA8C0114F03CFF00
:101A1800BB68C8F80C00D86868B19A7E6FF00B01F3
:101A280002F03F020C2313FB0213C6501844057240
:101A38004460BDE8F081FEE7037A5A1E082A04D9FB
:101A48000B3B062B01D9002070470069704700BF87
:101A5800037A153B052B94BF00690020704700BF2F
:101A6800037A142B06D10269B2F900308B42B8BF51
:101A78000B461380704700BFF8B50546002012F0EA
:101A88001DF820B3002704463E4603E012F016F87E
:101A9800044690B1204600F07FF9626DAA420346E1
:101AA8002046F3D1022B0FD0042B08BF264612F094
:101AB80005F8274604460028ECD10EB13046F8BD9B
:101AC8002FB13E463046F8BD26463046F8BDBDE843
:101AD800F840002011F0F2BF2DE9F047077F17F01A
:101AE800010722D1C56806468946904615B1AA461F
:101AF800012708E088470546B8B18246286801F002
:101B080027F9030614D529463046C04750450546EF
:101B18000BD00028F2D1337F1A0706D52FB13046F3
:101B2800C847002705460028E8D10020BDE8F0870F
:101B38002C682CB910E0204605F0A4FF044658B1E3
:101B48000121204601F0F8F80028F4D020460121B0
:101B580001F0F2F80028D6D1F368AB42E5D073B1B2
:101B680030461C68FFF788FF102102462046FFF721
:101B7800F1FE0128D9D1F368186802F0ABFAF560D4
:101B880030462C68FFF778FF0F2102462046FFF702
:101B9800E1FE0128C9D1F368186802F09BFA33699D
:101BA8000BB1304698470120C0E700BF027F38B527
:101BB80042F0080303775B070446C2F3C0050ED45E
:101BC8000F4A1049FFF788FF63691BB110B901215B
:101BD80020469847237F65F3C303237738BD0A4A15
:101BE8000A49FFF779FF6369002BF3D00028F1D188
:101BF800014620469847237F65F3C303237738BD02
:101C08009D6501088D650108A565010895650108B0
:101C18000148202114F046BC582A0020014B1868BE
:101C2800704700BF7027002070B582B0054601F0EC
:101C380091F8F0B1C368044613B11B68AB421AD0DF
:101C4800204614F09FFC014620B912E014F0A2FCD3
:101C5800014670B10B68AB422046F7D1019114F0F0
:101C680055FC0199084614F005FEAB680BB100223B
:101C78009A6002B070BD037FDA0744BF23F0010306
:101C8800037714F07FFCE36883420BD02046FFF70C
:101C98008DFFE368002BD3D01B68AB4204BF002341
:101CA800E360CDE7204614F071FCE26890420346F9
:101CB800ECD120461E68FFF7DFFE102102463046B1
:101CC800FFF748FEE5E700BF88B370B5044608464D
:101CD8000D46FFF7A9FF204614F054FC014620B931
:101CE80008E014F057FC014620B10B68AB422046CF
:101CF800F7D170BD284601F02DF8D8B1AB689A68C5
:101D08001AB1D2681268954212D09C60204614F02D
:101D1800E7FB064650B10560204614F033FC8642C6
:101D2800E7D12046BDE87040FFF740BFFEE77047A7
:101D3800FFF73CFFAB68002BE7D1284601F00EF80F
:101D4800AB68E2E7D8B1027F10B5C2F340048C4219
:101D58000FD0C46861F34102027754B1246844B1DA
:101D6800FFF78AFE0F2102462046FFF7F3FD012800
:101D780000D010BD2046BDE8104002F0ABB9704756
:101D880010B1007FC0F34000704700BF014B1868D6
:101D9800704700BF7827002008B10368187870479B
:101DA80038B50D46044688B1274A4379126843F08E
:101DB8000203824243713DD023681B78013B012B0B
:101DC80027D938BDB5B945638562C46211F076FE7E
:101DD80060B14379026843F0020343711378013B11
:101DE800012BEFD911F06AFE0028F2D1174B00221F
:101DF8001A6038BD436BAB4204BF00234363836A58
:101E0800AB4204BF00238362C36AAB42DED1C46223
:101E1800DCE79DB1636BAB4204BF00236363A36A35
:101E2800AB4204BF0023A362E36AAB42C9D10023DB
:101E3800E36238BD054B00221A60BDE700236563E5
:101E4800A562E362F5E700BF782700207427002029
:101E5800437923F0010310B54371044611F046FE9F
:101E6800E06411F043FEA06410BD00BF98B10368A0
:101E78001B7803F0FD03012B06D04FF6FF734FF0DC
:101E8800FF300B8048807047B0F908300B80B0F9FC
:101E98000A004880704708804880704730B103685E
:101EA8001B7803F0FD03012B01D00020704790F848
:101EB800440000F00F00704730B103681B7803F04E
:101EC800FD03012B01D000207047006B704700BF55
:101ED80000230B6058B103681B7803F0FD03012B46
:101EE80005D1B0F918300B80B0F91A304B80704723
:101EF80018B1437943F0080343717047014B1868E0
:101F0800704700BF7427002000B303291BD00C2999
:101F180017D1B0F92620036893F819C08AB110B513
:101F28000B4CCCF1640C00200CFB02F384FB03E1A6
:101F3800DB17C3EB611310441AB200B2002AF3D1C5
:101F480010BD00207047B0F92420E4E7704700BFB7
:101F58001F85EB512DE9F04FA5B00646FFF71EFD92
:101F680005463046FFF716FD132D044607D0162DFB
:101F780018D0192D00F0AA8025B0BDE8F08F3046A2
:101F8800FFF710FD0378022B0546F5D01722002134
:101F9800204604F033FE0646002800F0698102233B
:101FA8002B70E9E73046FFF753FD04AE074630468D
:101FB80009F020FB34220021204604F01FFE28B13E
:101FC8009DF8333043F001038DF833303246002159
:101FD800204601F01DF868220021204604F00EFE7C
:101FE800692205460021204604F008FE218BB4F83A
:101FF80014C0ABB2ACEB030CE58A0B44618B82B224
:10200800AD1A0A440021084663F30F006CF30F0170
:1020180062F31F4065F31F410DF1480902910390D7
:102028003946484601F024FB4FF00008D34B139380
:102038004A461B2102AD2046CDF850801696CDF8B1
:102048007C801595FFF786FC17224146204604F050
:10205800D5FD10B1BDF9103063B92A46314638466E
:1020680009F0F0FA4A461C212046FFF773FC25B018
:10207800BDE8F08F2A4631463846DDF820B0CDF865
:10208800208009F0DFFA182014F0ECFB04F11401A9
:102098008246BDF91020434609F038F8504604F549
:1020A800907108F03FFEBBF1000FDBD02A463146A5
:1020B8003846CDF820B08DF813808DF832808DF831
:1020C8003A808DF8468009F0BDFACBE73046FFF735
:1020D800BFFC02AD07462A462046694603F08EFF3C
:1020E800684613F05BFC20B9284613F057FC00281B
:1020F8005CD004AE304609F07DFA21224FF48031DD
:10210800204604F07BFDC0B202288DF8130000F2CF
:102118001D8131224FF48031204604F06FFDC0B29A
:1021280002288DF8320000F22B8145224FF48031CD
:10213800204604F063FDC0B202288DF8460000F284
:102148000E8160224FF48031204604F057FDC3B25F
:10215800FC2B40F2C0809DF846309DF813209DF876
:1021680032100A43134321D00B224FF4803120460A
:1021780004F044FD0DF14809ADF810003946484611
:1021880001F076FA7D4B13930223149368464FF4BB
:10219800803316961F9313F001FC002840F0198134
:1021A800284613F0FBFB002840F0B08017220021DE
:1021B800204604F023FD002840F0BA803422002194
:1021C800204604F01BFD00283FF4D6AE0DF110099F
:1021D8000026484609F00EFA4A46314620468DF850
:1021E80013608DF82A608DF83A608DF8466000F02B
:1021F8000FFF31466822204604F000FD3146804634
:102208006922204604F0FAFC228BB4F814C0E18A53
:102218001FFA88F3ACEB030C1344628B80B2091AE3
:10222800104432466CF30F0261F31F4202923246A9
:1022380063F30F0260F31F42394612A8039201F0BC
:1022480017FA4E4B139312AA01231B21204614930D
:10225800CDE915591F96FFF77DFB2A4649463846B2
:1022680009F0F0F912AA1C212046FFF773FB83E658
:1022780001460B22204604F0C1FC68220FFA80F8C0
:102288003146204604F0BAFC69220746314620460A
:1022980004F0B4FCB4F814C081B2208BBBB2ACEB30
:1022A800030CE78A0344608B7F1A014430466CF3C1
:1022B8000F0067F31F401290304663F30F0061F37D
:1022C8001F4013904246686812A913F013FD98B98D
:1022D80001232B7050E69DF8132003FB02F2111224
:1022E80001FB03F31B0A120A8DF813208DF8323014
:1022F8008DF84630194634E721223146204604F04D
:102308007DFCC0B2FC28E3D92E7035E64A461B2175
:1023180020461595FFF71EFB31462A463846159587
:1023280009F090F94A461C212046FFF713FB3DE7C8
:1023380004F5907008F04AFD064600283FF43EAFC9
:1023480008F05AFD304614F095FA37E720224FF48A
:102358008031204604F052FCADF81400D9E6402242
:102368004FF48031204604F049FC00B20028ADF853
:102378003E0014DC00238DF84630E2E68090020827
:1023880032224FF48031204604F038FC00B2002895
:10239800ADF8300014DC00238DF83230C5E6432256
:1023A8004FF48031204604F029FC4422ADF8440063
:1023B8004FF48031204604F021FCADF83C00C0E623
:1023C80030224FF48031204604F018FCADF82E007E
:1023D800ABE64A461B212046CDF854D0FFF7BAFA9F
:1023E8006A463146384609F02DF94A461C212046EE
:1023F800FFF7B0FAD4E600BF10B508460C46FFF761
:10240800D5FA002004F0F4FB204604F0D1FF0120A7
:1024180004F0EEFB0021204613F08CF9A368CBB141
:102428009A6822B12046FFF7FFFBA36893B11868AA
:1024380088B114F01FFAA06800230360C3682BB1A9
:10244800184614F017FAA0680023C36014F012FAB3
:102458000023A36010BD1846F0E700BF2DE9F04146
:102468004E680C462EB3304603F0C2F80746304695
:1024780003F04CF81022804600213046F58A04F01B
:10248800BDFB2B18A3EB08039BB25A1EE3826283A1
:10249800002112223046B58A04F0B0FB0544E81B3F
:1024A80080B24BF67633421EA0822283E361BDE8F8
:1024B800F08141F67603E361BDE8F0812DE9F04F44
:1024C800B0F820B08B458DB008D00A460C46594666
:1024D800064605F033F9814618B934840DB0BDE8D5
:1024E800F08F304601F0F6FD4FF42070348414F07C
:1024F800B9F94FF420720021059014F0DFF9738CBC
:1025080013F4FC7F58D00025E343CDE90AB90693BC
:10251800A8460396A146039BDE6806EBC504EF00B8
:10252800606820F07F4005F03BFA039B0490DB686D
:102538003B448246586820F07F4005F033FA069AFB
:102548001AEA020F834627D1E37913F0020323D155
:10255800F25911895668D27A4FF6FF70814242D0FB
:10256800D2B1012A13D006EB820102E001339A426C
:1025780012D031F8020BC0F30D07662FF6D107040D
:102588000AD4410400F1D98056F8236042E0C1F32F
:102598000D03662B00F0CB80039B5B8C0135C3F3E6
:1025A800C5039D42B7D34C46DDF828B0039EDDF83D
:1025B8002C90B8F1000F7AD1059814F05BF9B9F1B5
:1025C800010F00F0BF80B9F1030F00F0C180B9F12D
:1025D800020F83D1304601F07DFD30460DB0BDE8D5
:1025E800F04F01F04FB8002AD6D0304603E09A42A7
:1025F80000F10800D0D056F833100988C1F30D0750
:10260800662F03F10103F2D10A04C5D44B0400F18B
:102618009480466832681388002B00F0A380B8F1D4
:10262800000F00F081804FF0000A09940795574683
:10263800CDF820904FF0000A3D46059C574602E031
:102648000137474546D0D4F80490484605F0A8F924
:102658008246484605F0A6F93268B4F808C0515BCE
:102668008C4502EB050E04F11404E9D18345E7D14A
:10267800049B5345E4D8BA46D04570462F467AD0D5
:102688000237D35B002BD5D1DDE90759039B5B8C5F
:102698000135C3F3C503AB4285D9B8F1200F7FF4E8
:1026A8003AAF4C46DDF828B0039EDDF82C90059D26
:1026B80008EB880805EB8808686805F073F9009549
:1026C800014623465A463046143504F06BFF45450B
:1026D800F2D171E7AA46DDE90759099C704608EB73
:1026E8008801059FF36827F8213007EB81013369DA
:1026F8004B800388B0680B810AF1020A636832F8DC
:102708000A20C860C3F317037068086108F101085C
:102718004B60002ABAD0B8F1200FB7D009940795BA
:102728005746CDF8209085E7C2461046D7E70A04F9
:102738003FF532AF4B047FF56DAF662015F000FA18
:10274800064667E730460DB0BDE8F04F01F0C2BC61
:102758004FF6FF724FF4702130460DB0BDE8F04FD0
:1027680004F0F2BB039B5B8C0135C3F3C503AB429A
:102778003FF6D1AE17E7099C079DDDF82090BA46D1
:10278800ADE700BFF0B5084685B00E46FFF706F97D
:1027980004463046FFF700F9631E05462A2B4CD83D
:1027A800DFE813F095004B00A4004B004B004B00F2
:1027B8004B00AA00CF004B00D5004B004B00EC00AB
:1027C8000E0132014B004B004D0053004B004D00F1
:1027D8004B004B004D004B004B004B004B004B0097
:1027E8004B004B004B004B005D004B004B004B0077
:1027F8004B004B004B002B0085000922002104F000
:10280800FDF90A2204460021284604F0F7F980B2AF
:1028180008B9E4B214B1284601F0A4F8284605F036
:1028280045F9064648B10024AB681B6853F82400F4
:10283800013401F097F8A642F6D105B0F0BD304654
:1028480005B0BDE8F040FFF785BB002100F0A6FE0B
:102858000146304605B0BDE8F040FFF701B9012256
:10286800002104F0CBF9042200210646284604F092
:10287800C5F9092200210746284604F0BFF90A22B3
:1028880004460021284604F0B9F980B248B9E4B2F8
:102898003CB936B242F2D1739E4202D038B2984265
:1028A800CBD1284605B0BDE8F04001F05BB805F093
:1028B800FDF806460028C0D00024AB681B6853F812
:1028C8002400013401F04EF8A642F6D1B5E7038C96
:1028D80043F02004A342B0D01A0600F1A780214695
:1028E800284605B0BDE8F040FFF7E8BD018C880632
:1028F800A3D521F02001F3E7018C8B0600F191802C
:102908003046FFF74FF8FFF7D7FA002895D1EB6963
:102918001F0792D52B8C13F0010F40F0A38043F0D2
:10292800010406D11E0600F1238121462846FFF73F
:10293800C5FD00221D21284605B0BDE8F040FFF77F
:1029480009B8038C43F04004A342C5D175E7018C54
:102958004B0661D4284602F0BDFD02287FF46DAF16
:1029680002AA6946284603F049FB6946284601F051
:1029780093FB02A9284601F08FFB5EE7C3691A079B
:102988005FD403F40163B3F5016F7FF456AF00F031
:102998002FFB00287FF451AF284602F029FE074696
:1029A800284602F0A3FE04463046FEF7FBFF0378F4
:1029B800113B032B3FF641AFDFE803F0826EAC8F8B
:1029C800C3695B0539D4A86800B18068FFF7D8F9F6
:1029D8000746FFF7DBF9002800F0C180FFF7DCF9B4
:1029E800022828D004280CBF06240224298C0C4372
:1029F800002F00F0A58044F00806B1423FF41DAF57
:102A0800270643D431466BE7018C11F00E0F3FF4D3
:102A180014AF21F00E0163E721F04001FFF74EFDEE
:102A280098E721F02001FFF749FD69E729460020D2
:102A3800FFF7B6F953E70624D8E7012103F0C0FAF7
:102A4800C1E73046FEF7AEFF0278A2F11103032B6F
:102A580000F29280DFE803F00C020C022B8CD807FE
:102A68007FF567AF23F001012846FFF727FD60E7F0
:102A78002B8CDF0743F001043FF55BAF1E067FF5A3
:102A880054AF29460020FFF78BF94EE7294600206E
:102A9800FFF786F9314623E7284602F031FD044660
:102AA800284601F057F8031EB8BF033304EBA3010F
:102AB800002209B2284605B0BDE8F04003F038B856
:102AC800284602F01DFD0446284601F043F8031E7F
:102AD80000DA0333A4EBA301EAE7284602F002FD7B
:102AE8008207EDD0002F01DC002CE9DD284602F03A
:102AF80001FD0446284601F027F8031EB8BF03333A
:102B0800A4EBA301002209B2284605B0BDE8F040B5
:102B180002F0F6BF284602F0E5FC8107BCD0002F82
:102B280001DC002CB8DD284602F0E4FC0446284607
:102B380001F00AF8031EB8BF033304EBA301E1E771
:102B48008C4206D026060ED421462846FFF7B6FC4E
:102B5800298C08077FF571AE21F00801C0E63046E0
:102B6800FEF76AFF3AE729463846FFF719F9EBE717
:102B78002946FFF715F9D8E60A2A3FF45EAED8E6EB
:102B880010B5144C237803B110BD13F025FD15F0D2
:102B980085F913F0E3FA12F089FDFFF739F806F02A
:102BA800DBFA04F01FF80C484FF4B07113F07AFC0C
:102BB8000A485C2113F076FC05F00EFC09F08CF94C
:102BC80008F046FE11F090FE12F028FC0123237055
:102BD80010BD00BF80270020882A00207C2A002002
:102BE80010B50146034800F011F9044600F086F9D3
:102BF800204610BD8090020870B584B00D4604468A
:102C080000F096FEEA07064627D4E3692B43E36102
:102C1800204600F08DFEB04206D115F0C07F03D1EA
:102C2800EB060BD404B070BD204604F02BFF00F077
:102C380099FE204600F096FEEB06F3D502AA6946F7
:102C4800204603F0DBF96946204601F025FA02A97F
:102C5800204601F021FA04B070BD204601F03AFA8E
:102C6800E3692B432046E36101F034FAD0E700BF63
:102C780070B584B00D46044600F05AFEEA060646D2
:102C880028D4E36923EA0503E361EB0711D420465E
:102C980000F04EFEB04202D115F0C07F07D02046AA
:102CA80004F0F0FE04B0BDE8704000F05BBE04B074
:102CB80070BD204601F00EFA204600F039FE0028CB
:102CC800E5D0204604F0DEFE00F04CFE204600F081
:102CD80049FEDCE702AA6946204603F08FF96946F7
:102CE800204601F0D9F902A9204601F0D5F9C8E734
:102CF80038B5038C43EA0105994312D02B060446E4
:102D080005D429462046BDE83840FFF7D7BB014621
:102D18000020FFF745F829462046BDE83840FFF770
:102D2800CDBB38BD038C194223EA010200D170479C
:102D38001146FFF7C3BB00BFC36999430CBF01200D
:102D480000207047C369194214BF01200020704752
:102D5800008C7047806800B18068704738B5856816
:102D680005B138BD0B4A1368044601331C201360B3
:102D780013F078FDA06058B11C22294613F09EFD7F
:102D8800A268138B43F4706343F00303138338BDC5
:102D9800FEE700BF7C27002020B10068401AB0FA87
:102DA80080F04009704700BF2DE9F04105682E68A2
:102DB80004460EB33768CFB1D7F800800760B8F182
:102DC800000F0DD0D8F8003013B10360FFF7ECFF07
:102DD800D8F80430C4F8008013B14046214698471B
:102DE8007B68276013B13846214698477368266088
:102DF80013B12146304698476B68256023B12146B8
:102E08002846BDE8F0411847BDE8F0812DE9F041BA
:102E18000F468046064650B1374D034601E01B6811
:102E28002BB19C6915EA0406F9D0C4F30F16304695
:102E380013F018FD044600285BD03246002113F039
:102E48003DFDC4E9008717B3BD68002D41D028684F
:102E580088B1696801316960890013F015FDBA68A5
:102E68002860D2E9002303F18043013B42F8234064
:102E78002046BDE8F081042013F0F4FCBB6828600C
:102E8800196801220C6020465A60BDE8F08110F0F4
:102E9800C9FD054650B3C06800B3696A013169626B
:102EA800890013F0F1FC6B6AE86003F18043013B91
:102EB80040F8234000256561284610F0B9FD431EFF
:102EC8002383284610F0C6FD431E63832046BDE8D1
:102ED800F0813846FFF742FFBD68B8E7042013F0D9
:102EE800C1FC0123E86004606B62E3E7204613F04D
:102EF800C1FC0024BCE700BFF0FF0F002DE9F04142
:102F0800044600F02FFD002003F072FE204606F074
:102F1800F9F825682E6816B33768D7B1D7F8008056
:102F28002760B8F1000F0ED0D8F800301BB123602D
:102F38002046FFF739FFD8F80430C4F8008013B1F1
:102F48004046214698477B68276013B1384621469A
:102F580098477368266013B12146304698476B68D6
:102F6800256013B1214628469847012003F040FE0A
:102F78004FF6FF724FF47021204603F0E5FF20461C
:102F880000F0E0FEFEF74AFE50B1226812B907E0F1
:102F980012682AB1137E13F00C03F9D0042B14D055
:102FA800204604F06FFD054668B122462321FEF74E
:102FB800D1FC224628462421FEF7CCFC2046BDE859
:102FC800F04101F087B8BDE8F0812146FEF77CFEAC
:102FD800E6E700BF10B50446006800E0206083689B
:102FE80021460BB19847206800680028F6D110BD2B
:102FF800006810B90BE0006840B1037E13F00303CA
:10300800F9D0A3F10100B0FA80F040097047704789
:10301800F8B5064614460D4681B1602203F0EEFD70
:10302800C7B2022F00F2DE800023E370A37684F893
:10303800223084F82A3084F83630F8BDFF270B2276
:103048002946304603F0DAFDE378208053BB32226C
:103058002946304603F0D2FD00B2208420B194F80E
:103068002230002B40F0C58035222946304603F037
:10307800C5FD00B2E08420B194F82A30002B40F05E
:10308800DA80A37E002B79D194F83630002B3DD11D
:10309800002DD2D0FC2FD0D894F8363013FB07F38C
:1030A8001B0AC2E721222946304603F0A7FDC0B219
:1030B8000228E070CBD920222946304603F09EFD35
:1030C80029460246304604F01DFB2622A0802946E8
:1030D800304603F093FD18B1437A5A0740F0C88090
:1030E80023222946304603F089FDE37B60F302037F
:1030F800E3735B0740F0C28027222946304603F07D
:103108007DFDE37B60F3C503E373A0E74022294616
:10311800304603F073FD00B2E0850028B8D094F87B
:103128003630022BB4D945222946304603F066FDD5
:10313800C0B2022884F83600AAD94122294630466E
:1031480003F05CFD422220862946304603F056FDF6
:10315800432260862946304603F050FD4422A0866B
:103168002946304603F04AFD29460246304604F017
:10317800C9FAA085002D3FF460AF8BE728222946C5
:10318800304603F03BFD206100283FF47DAF292243
:103198002946304603F032FDC0B20228A0767FF6F9
:1031A80073AF206906F0D0FB022800F08A802A223B
:1031B8002946304603F022FD29460246304604F0EF
:1031C800A1FA2B2220832946304603F017FD2C2232
:1031D800E0762946304603F011FD003818BF01207B
:1031E800207751E767222946304603F007FDA07093
:1031F80025E731222946304603F000FDC0B20228F7
:1032080084F822007FF630AF33222946304603F097
:10321800F5FC94F8233060F34503302284F823301A
:103228002946304603F0EAFC29460246304604F0B7
:1032380069FAE08318E737222946304603F0DEFCB6
:10324800C0B2022884F82A007FF61BAF382229462C
:10325800304603F0D3FC362220852946304603F059
:10326800CDFC29460246304604F04CFAA08408E713
:1032780001460A22A01D13F01FFBE8E6202229467A
:10328800304603F0BBFC29460246304604F03AFAC1
:103298002222E0802946304603F0B0FC2946024647
:1032A800304604F02FFA242260812946304603F084
:1032B800A5FC252220722946304603F09FFC207386
:1032C8001AE757222946304603F098FC55226061D8
:1032D8002946304603F092FC29460246304604F05F
:1032E80011FA2083D0E600BF70B51546562206466F
:1032F8000C4603F083FCC3B2022BAB763CD974B105
:1033080060222146304603F079FCC0B202283ED93B
:10331800FC2804D8AB7E00FB03F31B12AB765522C6
:103328002146304603F06AFC21460246304604F046
:10333800E9F95822A8812146304603F05FFC59225A
:10334800A8822146304603F059FC5A226882214659
:10335800304603F053FCAB7F60F30203AB7764B9EC
:1033680057222146304603F049FC5B22286021465B
:10337800304603F043FC287770BD6722214630466B
:1033880003F03CFCAB7F60F3C503AB77E8E70023B1
:10339800AB7670BD70B51446462205460E4603F05E
:1033A8002DFCC0B20228E0722FD976B160223146D6
:1033B800284603F023FCC0B202283FD9FC2804D8D1
:1033C800E37A00FB03F31B12E3724FF08073236070
:1033D8002B8BAA8A01339B1AC3F3C03202FA83F2F9
:1033E80052106B8BA280EA8A01339B1AC3F3C03256
:1033F80002FA83F35B10E38048223146284603F043
:10340800FDFBC0B2A07258B906B970BD672231463B
:10341800284603F0F3FB237B60F30303237370BD9B
:1034280047223146284603F0E9FB31460246284642
:1034380004F068F92081002EE7D0E7E70023E37263
:1034480070BD00BF70B514464E2206460D4603F007
:10345800D5FBC3B2022B237217D975B16022294656
:10346800304603F0CBFBC0B2022843D9FC2804D86D
:10347800237A00FB03F31B122372492229463046A4
:1034880003F0BCFB00B2608000B970BD4D22294634
:10349800304603F0B3FB29460246304604F032F9C1
:1034A8004A2220802946304603F0A8FB00B2A080BB
:1034B800C8B94C222946304603F0A0FB637A00388D
:1034C80018BF012060F3820360F3C3036372002D09
:1034D800DBD067222946304603F090FB637A60F31D
:1034E8000103637270BD4B222946304603F086FB08
:1034F800E080DEE70023237270BD00BF70B514467C
:10350800502206460D4603F079FB00B2608000B9F0
:1035180070BD53222946304603F070FBC3B2022B1C
:103528002373F5D975B160222946304603F066FB4E
:10353800C0B202282FD9FC2804D8237B00FB03F350
:103548001B12237352222946304603F057FB2946A3
:103558000246304604F0D6F85422208029463046E8
:1035680003F04CFB5122A0602946304603F046FB8D
:10357800637B003818BF012060F382036373002D5A
:10358800C6D067222946304603F038FB637B60F3D8
:103598000103637370BD0023237370BDF8B5402227
:1035A80004460D4603F02AFB06B2F6B9002635227A
:1035B8002946204603F022FB07B2002F44D12946B2
:1035C8006822204603F01AFB692203462946204652
:1035D8001CB203F013FB00B2A042B8BF204600287B
:1035E800C4BF801906B23046F8BD45222946204698
:1035F80003F004FBC0B20228D8D94322294620464A
:1036080003F0FCFA06EBD676013000EB66064122A1
:103618002946204603F0F2FA422207B229462046FC
:1036280003F0ECFA03B2002BB8BF5B42002FB8BF1F
:103638007F42B6B29BB2BFB2BB422CBFF618F61996
:1036480036B226EAE676B2E737222946204603F064
:10365800D5FAC0B20228B2D938222946204603F04A
:10366800CDFA07FA80F0B042B8BF304606B2A6E7F6
:1036780038B504460D464822002113F01FF925608D
:1036880038BD00BF30B5856883B004460DB1B5F9C3
:10369800165000230DF1060214212046ADF806301D
:1036A800FEF758F9BDF90630AB4204D1A3688BB1D7
:1036B800DD8203B030BD204600F00CFDA268BDF9E4
:1036C800063042B1D3829D42F3D0204600F002FD7D
:1036D80003B030BD2B46002BF5D02046FFF73EFB4C
:1036E800A268BDF90630EDE7806808B1B0F91600A8
:1036F800704700BF806808B1807E8009704700BFAE
:103708002DE9F047904682B06D220F46002104460D
:1037180003F074FA6C2206460FFA80F9002120465D
:1037280003F06CFA05B2B9F1000F02D1B5F5807F4C
:103738001BD06E2200212046B4F814A003F05EFAD4
:103748006F22824400212046ADF804A0E48A03F0E9
:1037580055FA0444ADF80640B8F1000F08D101ABA2
:103768002A464946384612F05DFB02B0BDE8F087AC
:1037780076424FF480330FFA86F993FBF5F31DB2C6
:10378800EDE700BF70B582B00D461646002301AACA
:103798000721044603F0ACFE012815D020B9002209
:1037A8002946204604F026F9002301AA08212046CC
:1037B80003F09EFE01280BD020B900223146204696
:1037C80004F01EF902B070BD019BAB42E7D1EBE7F4
:1037D800019BB342F1D102B070BD00BF30B583B0D8
:1037E800002301AA0C460721054603F081FE0128A3
:1037F80007D020B900222146284604F0FBF803B080
:1038080030BD019BA342F5D103B030BD30B583B0C4
:10381800002301AA0C460821054603F069FE012889
:1038280007D020B900222146284604F0E9F803B061
:1038380030BD019BA342F5D103B030BD70B582B055
:103848000D461646002301AA0121044603F050FE46
:10385800012815D020B900222946204604F0B8F8DE
:10386800002301AA0421204603F042FE01280BD0C0
:1038780020B900223146204604F0B6F802B070BDE7
:10388800019BAB42E7D1EBE7019BB342F1D102B018
:1038980070BD00BF30B583B0002301AA0C460121DA
:1038A800054603F025FE012807D020B9002221464D
:1038B800284604F08DF803B030BD019BA342F5D132
:1038C80003B030BD30B583B0002301AA0C460421F3
:1038D800054603F00DFE012807D020B90022214635
:1038E800284604F081F803B030BD019BA342F5D10E
:1038F80003B030BD10B50446002289B204F08CF83C
:1039080094F8223043F0010384F82230204604F072
:1039180089F890F8222042F0020280F8222004F070
:1039280089F8406818B1BDE8104014F0EBBB10BD31
:1039380038B50B490546FFF705FA08B1002038BD30
:103948000446284604F09EF80028F7D00A222146AB
:1039580003F054F980B2003818BF012038BD00BF09
:103968000100060090F8222042F0010208B580F814
:10397800222004F057F890F8222042F0020280F842
:10398800222004F057F8406818B1BDE8084014F048
:10399800B9BB08BDF8B50C4E0C4F3368013305466A
:1039A8000C4638683360D90012F06EFF386050B1A9
:1039B8000346306800F10052013A43F8325003EBF5
:1039C800C2035C60F8BDFEE7842700203C2A002083
:1039D80070B5044682B0154600221E4604F016F85B
:1039E800002301AA0721204603F082FD012815D0F3
:1039F80020B900222946204603F0FCFF002301AA33
:103A08000821204603F074FD01280BD020B90022BC
:103A18003146204603F0F4FF02B070BD019BAB4273
:103A2800E7D1EBE7019BB342F1D102B070BD00BF13
:103A3800436982694A600B60704700BF70B50446ED
:103A480004F020F808B3838AA48A0546E41A01F032
:103A580051FDA4B2122204440021284603F0CEF8F6
:103A6800322206460021284603F0C8F833220346CE
:103A7800002128461D4603F0C1F8430748BF7619C0
:103A8800A4B2B6B2A01B00B270BDB4F9140070BDE8
:103A980070B5044603F0F6FF08B3C38AE48A054606
:103AA800E41A01F02DFDA4B2102204440021284696
:103AB80003F0A4F8322206460021284603F09EF8B7
:103AC80033220346002128461D4603F097F8830752
:103AD80048BF7619A4B2B6B2A01B00B270BDB4F943
:103AE800160070BD2DE9F041064603F0CBFF38B350
:103AF800C38AF48A0546E41A01F002FDA4B2102232
:103B080004440021284603F079F8322207460021B0
:103B1800284603F073F8002180463322284603F034
:103B28006DF8830748BF4744A4B2BFB2E31BF18ACC
:103B38009BB2728B01329818401A00B2BDE8F0812E
:103B4800F38A1946F5E700BF038B828A581C801A4E
:103B580000B27047438BC28A581C801A00B2704763
:103B6800F8B512220021044603F048F8322206462E
:103B78000021204603F042F8332205460021204662
:103B880003F03CF8002142074FF01302204648BFDB
:103B9800761903F033F8322205460021204603F057
:103BA8002DF8332207460021204603F027F80307A3
:103BB800208BA38A00F10100B6B248BFED19C01AE4
:103BC800ADB2801B401B00B2F8BD00BFF8B5102293
:103BD8000021044603F012F832220646002120464E
:103BE80003F00CF8332205460021204603F006F8BE
:103BF800002182074FF01102204648BF761902F0D3
:103C0800FDFF322205460021204602F0F7FF33224D
:103C180007460021204602F0F1FFC307608BE38AC4
:103C280000F10100B6B248BFED19C01AADB2801B51
:103C3800401B00B2F8BD00BFF8B5826943690B604C
:103C48000D464A6012220021044602F0D7FF3222B4
:103C580006460021204602F0D1FF33220746002104
:103C6800204602F0CBFF40072B8848BFF619B6B2B2
:103C78001E4413222E800021204602F0BFFF32226C
:103C880006460021204602F0B9FF002107463322EC
:103C9800204602F0B3FF010748BFF619AB88B6B259
:103CA8009B1BAB8010220021204602F0A7FF322286
:103CB80006460021204602F0A1FF332207460021D4
:103CC800204602F09BFF82076B8848BFF619B6B200
:103CD8001E4411226E800021204602F08FFF3222FE
:103CE80006460021204602F089FF332203460021C0
:103CF80020461C4602F082FFC30748BF3619EB88EE
:103D0800B6B29B1BEB80F8BD00B583B0054B0193A1
:103D180001AA2D21FDF71EFEBDF9040003B05DF8D0
:103D280004FB00BF000001E000B583B04EF20103C0
:103D380001AA2D210193FDF70DFEBDF9060003B080
:103D48005DF804FB38B501220021044602F056FF55
:103D5800042205460021204602F050FF2DB242F20F
:103D6800D1739D4204D000B2984201D0002038BDE2
:103D780094F8223043F0010384F82230204603F0FF
:103D880051FE90F8222042F0020280F8222003F02F
:103D980051FE406808B114F0B5F9012038BD00BFE4
:103DA8002DE9F04F83B081460C46019192461E469C
:103DB80003F07CFE80B300251FFA84F81FFA8AF707
:103DC8008346D9F808301B684FF4802153F8254002
:103DD8001EB12046FEF7B0FFD8B9B4F814C0B4F845
:103DE80018E0E08A618B00231A46C444C64438446C
:103DF80039446EF30F026CF30F0360F31F4361F352
:103E08001F42C4E905320199002352462046FFF7B4
:103E1800C7FF0135AB45D4D103B0BDE8F08F00BF73
:103E280000283ED02DE9F0410D4617461E460446AF
:103E3800FFF760FC8046C6B9022821D09FB1204612
:103E480003F020FE044670B1FFF754FC0228F6D1B7
:103E5800204600222946FFF753FC204603F012FEB5
:103E680004460028F0D1BDE8F0818FB9B8F1020FFF
:103E7800F9D1294620460122BDE8F041FFF740BCB0
:103E8800324629462046FFF73BFC002FD7D1EAE708
:103E9800204603F0F7FD01231A462946FFF7C0FF25
:103EA800E4E77047F0B50C4685B0B1F90010ADF8FD
:103EB8000010ADF80410B4F90210ADF80210ADF816
:103EC8000A10B4F90610ADF80610ADF80E10B4F9E2
:103ED8000410ADF80810054616461F46ADF80C103C
:103EE8006946FFF79DFF3B46324601A92846FFF782
:103EF80097FF3B46324602A92846FFF791FF3B460B
:103F0800324603A92846FFF78BFFBDF90C20BDF9FF
:103F18000870BDF90450BDF90010BDF90E30BDF9A7
:103F28000AC0BDF90660BA421046A8BF3846BA4270
:103F3800B8BF3A46A842A8BF2846AA42B8BF2A46F0
:103F48008842A8BF08468A42B8BF0A466345194650
:103F5800A8BF61466345B8BF6346BDF90270B14268
:103F6800A8BF3146B342B8BF33460025B942A8BFFF
:103F780039462E46BB42B8BF3B4662F30F0660F394
:103F88000F0561F31F4563F31F4605222560666030
:103F98001146204611F012FD05B0F0BDF0B50E46F1
:103FA80083B001210446FEF7C7FE10B1002003B01C
:103FB800F0BD204603F036FD054603F03BFD0746FD
:103FC800FDF7AEFB85420ED03846FDF7B3FB8542C0
:103FD80009D03846FDF7B8FB854204D03846FDF7CE
:103FE800BDFB8542E2D14FF400212046FEF7AAFE30
:103FF8000546E8B92046FFF777FBA28A618B80B2B5
:10400800121A2B4662F30F05228B024462F30F0348
:10401800E28A121A084462F31F4560F31F436A4696
:10402800314630460095019311F002FD0028BDD0BD
:104038002046002301223146FFF734FF204603F0D3
:1040480021FD044628B36D4601212046FEF774FE83
:1040580003464FF400212046002BA7D1FEF772FE3D
:10406800012204F11401034668B903C985E8030075
:1040780029462046FFF716FF2A463146304611F0FA
:10408800D7FC002892D0204603F0FCFC0446002808
:10409800DAD1012003B0F0BD30B583B00C46054637
:1040A80003F0C8FCFDF76CFB08B903B030BD6368CA
:1040B80022680092694628460193FFF76FFF00289F
:1040C800F3D0284603F0B6FC694604F0E7FC03B0D9
:1040D80030BD00BF10B582B00446FFF705FBB4F849
:1040E80014C0B4F818E0E18A83B2608B0022ACEB0C
:1040F800030C9E44C91A0344204614466EF30F0469
:104108006CF30F0261F31F4263F31F446946CDE964
:104118000024FFF7C1FF02B010BD00BF2DE9F04732
:10412800476886B004468EB295B2002F3DD04FF452
:104138008021FEF701FE002800F0C580BA8AFB8ABC
:1041480032442B4496B29DB212220021384602F026
:1041580055FD322280460021384602F04FFD3322B9
:1041680081460021384602F049FD002142074FF000
:104178001002384648BFC84402F040FD1FFA88F8CC
:104188004644322280460021384602F037FD332269
:1041980081460021384602F031FD830748BFC844F4
:1041A8001FFA88F84544B6B2ADB2A38AF61AE38A74
:1041B800ED1A1FFA86F81FFA85FA58EA0A0336B28A
:1041C8002DB27BD02046FFF78FFAB4F9163080B2B3
:1041D8001B1AADF81230B4F918300344ADF8143096
:1041E800B4F91A300344ADF81630A38A04A91B1A8F
:1041F8002046ADF81030FFF74FFFA36901936369BC
:104208000093B4F91420B4F91630B4F91800B4F9CD
:104218001A10002F55D002A93846FFF70DFD02A944
:104228000022684611F066FD8146002860D0B4F986
:104238001420B4F91630B4F91800B4F91A1042442D
:10424800534480448A44A282E382A4F81880A4F8E4
:104258001AA02A46314600232046FFF7A1FD27B1C0
:10426800224623213846FDF775FB2046FFF73CFA26
:10427800B4F9162083B2D21AADF81220B4F9182076
:104288001A44ADF81420B4F91A201A44ADF81620CF
:10429800A28A04A9D31A2046ADF81030FFF7FCFE15
:1042A80067B1002202A904F1140011F023FDB9F14D
:1042B800000F00D110B1384602F0BCFA06B0BDE8D4
:1042C800F087B946BBE73846B7F9148001F012F910
:1042D800A8EB000806EB08033846B7F916809EB22B
:1042E80001F00EF9A8EB0008A8441FFA88F52BE79F
:1042F800384602F09FFA9AE72DE9F04F87B0044656
:1043080003F0C0FB072200210746204602F076FC96
:104318000822804600210FFA80FA204602F06EFC3F
:1043280006B2002F00F03C8105463846FFF718FC1E
:1043380001903846FFF74AFC08F4C048B8F5005F1A
:10434800029000F0A08005F4C045B5F5005F00F0CC
:1043580084806A220021204602F050FC6B228046AD
:104368000021204602F04AFC238BB4F8149008F48C
:10437800C04101330FFA88F5B4F81A801FFA83FB9D
:104388000246E38A08F10108ABEB090000B21FFA04
:1043980088F80490A8EB030000B2B1F5005F05901F
:1043A80010B245D002F4C042B2F5005F2BD055449C
:1043B800064400930021ABB209222046039302F081
:1043C8001DFC10F0FF011FFA86FA009B2DB236B2D1
:1043D8000AD001290FD0881E07280CD8DFE800F082
:1043E800926A8BCDBFB39F723846162202F006FC44
:1043F800C0B201285ED032462946204607B0BDE843
:10440800F04FFFF78BBE20F4C042B2F5FA6FCEDC56
:104418000599B2F57A7FC8BFC2F57A7201FB02F23C
:10442800634981FB0201D217C2EB611210B2BEE7E9
:1044380025F4C041B1F5FA6FB4DC049DB1F57A7F7B
:10444800C8BFC1F57A7105FB01F1594D85FB015CC7
:10445800C917C1EB6C110DB2A4E726F4C043B3F53C
:10446800FA6F3FF776AF029AB3F57A7FC8BFC3F504
:104478007A7302FB03F34E4A82FB0312DB17C3EB8A
:1044880062131EB265E72AF4C043B3F5FA6F3FF72B
:104498005AAF019AB3F57A7FC8BFC3F57A7302FBA6
:1044A80003F3434A82FB0312DB17C3EB62130FFAD1
:1044B80083FA48E7019BA9EB0B051D44039B2B449A
:1044C8001DB298E7049B019903EBD37201EBD171FC
:1044D8005210C2EB61020399059B1144029A03EB47
:1044E800D37302EBD2725B10C3EB62039A440DB232
:1044F8000FFA8AF67FE7029AA3EB080313445344A2
:104508001EB278E7049B03EBD375019B6D1003EB98
:10451800D373C5EB6305039B2B441DB26BE7019A6C
:10452800A9EB0B031344039A1A441346059A02EBAA
:10453800D276029A761002EBD272C6EB6206564425
:104548001DB236B257E7059B03EBD376029B761074
:1045580003EBD373C6EB6306564436B24BE7019AB6
:10456800A9EB0B051544029AA3EB08031344039A1D
:1045780053442A4415B21EB23DE7029AA3EB08033E
:104588001344049A02EBD275019A6D1002EBD272B1
:10459800C5EB6205039A53442A4415B21EB22AE7B2
:1045A80032465146204607B0BDE8F04FFFF7B6BD8A
:1045B8001F85EB5110B582B00446FFF795F8B4F8A3
:1045C80014C0B4F818E0E18A83B2608B0022ACEB27
:1045D800030C9E44C91A0344204614466EF30F0484
:1045E8006CF30F0261F31F4263F31F446946CDE980
:1045F8000024FFF7D3FC02B010BD00BF38B5054654
:104608000C46FEF7ABFBAB689C8238BD8368B0F9FB
:104618001620B0F918C030B545698469B0F914E0BE
:10462800B0F91A000D604C605BB19B8AAEEB030ECB
:104638009C44D21A0344A1F800E0A1F804C04A80BF
:10464800CB8030BD01F4C04CBCF5005F00B50CD088
:1046580002F4C04CBCF5005F21D09042A8BF1046C0
:104668008842B8BF08465DF804FB21F4C04CBCF58D
:10467800FA6FEDDCBCF57A7FC8BFCCF57A7C1549BA
:104688000CFB03FC81FB0CE14FEAEC7CCCEB611CDE
:104698000FFA8CF102F4C04CBCF5005FDDD122F4B6
:1046A800C04CBCF5FA6FD8DCBCF57A7FC8BFCCF536
:1046B8007A7C084A0CFB03F382FB03C2DB17C3EBCB
:1046C80062131AB29042A8BF10468842B8BF084683
:1046D8005DF804FB1F85EB5190F8233003F00603C7
:1046E800062B00F0B1802DE9F04F8FB0044603F09F
:1046F800C9F90190002800F0A380204600F078FF57
:1047080094F8231011F00401804600F09F80258B57
:10471800A38A01352046ED1A00F0F8FE94F82370BC
:1047280017F002072DB2814600F0ED80B4F81AB0F8
:10473800E38A0BF1010BABEB030B1FFA8BFB238B0B
:10474800A28A01339B1A1BB2AB4279D02046FEF7EE
:10475800CBFFB4F9163080B21B1AADF83230B4F979
:1047680018300344ADF83430B4F91A300344ADF8C6
:104778003630A38A0CA91B1A2046ADF83030FFF753
:104788008BFCA369019809930AA963690893FFF749
:1047980053FA00220AA908A811F0ACFA04F1140887
:1047A8000746002800F0DE80E38A013B5B44638310
:1047B80016220021204602F021FAC0B20128ADB22B
:1047C80000F0CB80A38A013B1D44258308AA2A2137
:1047D8002046FDF7BFF8224623210198FDF7BAF8D5
:1047E8002046FEF781FFB4F9162083B2D21AADF83D
:1047F8003220B4F918201A44ADF83420B4F91A203C
:104808001A44ADF83620A28A0CA9D31A2046ADF86E
:104818003030FFF741FC0021204602F033F80AA9A6
:104828004046002211F066FA07B910B1019802F06B
:1048380001F82046FEF726FF01200FB0BDE8F08FF3
:1048480000200FB0BDE8F08F0020704701222046FD
:1048580002F0D4F907B200F4C040B0F5005F019847
:1048680000F08480FFF77CF942F2D1739F428146C1
:1048780000F053813D4602220021204602F0BEF995
:1048880003220FFA80FA0021204602F0B7F94B46BE
:1048980002B251462846FFF7D5FE0546204600F0ED
:1048A80035FE94F823309E07814626D5B4F81AA021
:1048B800E38A0AF1010AAAEB030A42F2D1739F4282
:1048C8001FFA8AFB0FFA8AFA7FF439AF4A46414643
:1048D8000023204601F044F9238BA28A01339B1A56
:1048E8001BB2AB4206D1638BE28A01339B1A1BB21F
:1048F8005345A5D01FFA8AFB28E742F2D173FF1A65
:10490800B7FA87F77F0904220021204602F076F9DA
:1049180000F4C043B3F5005F0FFA80FA01984AD05B
:10492800FFF754F942F2D1739A45029068D00522F4
:104938000021204602F062F906220FFA80FB0021CE
:10494800204602F05BF9029B02B259465046FFF737
:1049580079FE8246002FB9D1BEE7238B01335B1B5A
:10496800A38233E7019801F065FF1DE727F4C045EE
:10497800B5F5FA6F3FF776AFFFF7F2F842F2D17B61
:104988005F45814600F0C980019B93F8231011F020
:10499800040A00F0CA81B5F57A7F2B46BD4AC8BF24
:1049A800C5F57A7303FB09F382FB0312DB17C3EB2C
:1049B80062152DB25FE72AF4C04BBBF5FA6FAFDC86
:1049C800FFF704F942F2D1739A45029018D0019A80
:1049D80092F8231011F0020A00F06481029BBBF5E3
:1049E8007A7FC8BFCBF57A7B0BFB03FBA94B83FB14
:1049F8000B234FEAEB7BCBEB631B0FFA8BFA96E7A3
:104A080000221146204601F093F81022002120468A
:104A180002F0F4F8322200210746204602F0EEF8B0
:104A2800332282460021204602F0E8F8800700F190
:104A3800C4813BB20793BBB20493112200212046E4
:104A480002F0DCF8322282460021204602F0D6F835
:104A5800002107463322204602F0D0F8C10748BF9C
:104A6800BA441FFA8AF303930CAA4EF201032D21CC
:104A780020460C93FCF76EFF049ABDF932301344BC
:104A8800039A204613441EB203F010F88246002809
:104A980000F0EC800027CDE90565DFF804B23D465B
:104AA8000EE0B7F91A20B4F91610521A01325A4515
:104AB800B8BF5A460FFA82FB0135AA4500F0CA80F2
:104AC800A2687549126852F825703846FEF73AF917
:104AD8000028F1D13846FEF72BFF06460028E0D122
:104AE80001460922384602F089F810F0FC0FD8D0A8
:104AF80031460822384602F081F800B20028DBD19E
:104B08007A8BF98A079B0132521A03FA82F1049BC5
:104B180092B28B451A44CFDCCCE7002211462046DE
:104B280000F0EEFF13220021204602F067F832223F
:104B380000210546204602F061F833228246002112
:104B4800204602F05BF8030700F146812BB205937B
:104B5800ABB2029312220021204602F04FF8322213
:104B680000218246204602F049F8332205460021FA
:104B7800204602F043F8460700F126810FFA8AF32F
:104B880004931FFA8AF30393444B0C930CAA2D2128
:104B98002046FCF7DFFE029BBDF930501D44039B05
:104BA80020461D4402F082FF1622064600212046B8
:104BB80002F024F8C0B201282DB200F01381002EB3
:104BC8003FF459AE364A05954FF0000B5D46B246A4
:104BD80093460EE0B6F91820B4F91410521A0132AF
:104BE8005A45B8BF5A460FFA82FB0135AA4500F06C
:104BF800D480A2682849126852F825603046FEF72A
:104C0800A1F80028F1D13046FEF792FE0028E1D144
:104C180009220146304601F0F1FFC0B2932207286D
:104C280022FA00F201D8D107D4D408220021304654
:104C380001F0E4FF00B20028D7D1328BB18A049B7F
:104C48000132521A03FA82F1039B92B28B451A443D
:104C5800CBDCC8E7124B9B45DDE9056506D0039B15
:104C68005B440FFA83FB5E45B8BF5E460522002110
:104C7800204601F0C3FF06220FFA80FA00212046E1
:104C880001F0BCFF514602B2029B3046FFF7DAFC46
:104C980082461BE61F85EB5101000400000001E07D
:104CA80001E0FFFF01980422514601F0A7FF42F2FC
:104CB800D17300B298427FF491AE5146102220463B
:104CC80001F09CFF514606463222204601F096FF2D
:104CD800514683463322204601F090FF820748BFA1
:104CE80006EB0B0A4FF011024FF00001204654BFAB
:104CF8001FFA86FA1FFA8AFA01F080FF32228346E9
:104D08000021204601F07AFF332206460021204682
:104D180001F074FFC3074ABF0BEB06031FFA8BF3BE
:104D28009BB29A440FFA8AFA01E6012251461846C4
:104D380001F064FF00B258457FF42DAE51461222AF
:104D4800204601F05BFF514605463222204601F01D
:104D580055FF514683463322204601F04FFF00217C
:104D680042074FF01302204648BF5D4401F046FF5A
:104D78001FFA85FA322205460021204601F03EFF3F
:104D8800332283460021204601F038FF030748BF3D
:104D98005D44ADB255442DB26DE53C4B059D9B4538
:104DA8003FF469AD029B5B441BB2384A93423FF41F
:104DB80062AD9D42B8BF1D465DE507EB0A0083B2B0
:104DC800049303B2079338E6AA441FFA8AF30393BD
:104DD8000FFA8AF30493D7E65544ABB202932BB289
:104DE8000593B7E6002E3FF446AD4FF0000B04954F
:104DF800DFF898A05D46B3460DE0B4F91820B6F97F
:104E08001410521A01325245B8BF52460FFA82FAAC
:104E18000135AB4531D0A2681D49126852F82560AA
:104E28003046FDF78FFF0028F2D13046FEF780FDAF
:104E38000028E2D101460922304601F0DFFEC2B265
:104E480040F24911082A21FA02F101D8C807D4D43E
:104E580007220021304601F0D1FE00B20028D7D148
:104E6800328BB18A059B0132521A03FA82F1029BF6
:104E780092B28A451A44CBDCC8E7044B049D9A4594
:104E88003FF4F9AC039A524413B28EE701E0FFFFF6
:104E98000100040070B5054602F008FE064648B158
:104EA8000024AB681B6853F824000134FFF7F2FFB5
:104EB800A642F6D195F82230DA0700D470BD23F067
:104EC800010385F822302846FFF706FC2846FEF73E
:104ED8002FFD10B92846FFF70FFA002EEED00A2250
:104EE8000021284601F08AFE80B20028E6D0094B4E
:104EF8001B688342E2D3084B00F100501B6801385D
:104F080003EBC00253F8303051682846BDE87040C2
:104F1800184700BF842700203C2A00202DE9F04FC5
:104F2800BD4E87B0074601933378BDF940B00D46B2
:104F38009046002B7FD0002D00F09880384602F074
:104F4800A1FD12220021064601F058FE3222044635
:104F58000021304601F052FE3322814600213046BE
:104F680001F04CFE400748BF4C4423B210220021F8
:104F78003046029301F042FE3222044600213046B8
:104F880001F03CFE002181463322304601F036FE16
:104F9800122281074FF00001284648BF4C4401F017
:104FA8002DFE322281460021284601F027FE0FFA05
:104FB80084FA332204460021284601F01FFE00210E
:104FC80042074FF01002284648BFA14401F016FEE0
:104FD800322204460021284601F010FE33220390B5
:104FE8000021284601F00AFE830744BF039BE4180A
:104FF8000FFA89F924B2B8F1000F3CD008F1FF3854
:10500800B8F1140F00F20082DFE818F03D00C50087
:105018009F00EE00DA00AF00F601D801B201AA0144
:10502800990187017F0164015A014F013C01310157
:1050380026010801F4000123337002F0F3FC90F814
:1050480022309A0704460CD594F8223023F0020344
:1050580084F822302046FFF71DFF94F822309B0782
:10506800F2D400233370002D7FF468AF384602F085
:1050780009FD054662E741461622284601F0BEFDB5
:10508800C0B2012861D01FFA89F8A4B21622002103
:10509800304601F0B3FD019BB5F91490C0B29944B4
:1050A800B6F914300128A9EB0309304643D000F0C3
:1050B8009FFA029B4844C01A80440FFA88F8B5F951
:1050C8001650B6F916305D443046ED1A00F01EFA57
:1050D8002844A0EB0A00044400220121384602F0CB
:1050E80095FC002305AA0721384602F001FA012899
:1050F80024B21CD020B900224146384602F07AFC7E
:10510800002305AA0821384602F0F2F9012808D040
:1051180020B900222146384602F072FC07B0BDE8EB
:10512800F08F059BA342F4D107B0BDE8F08F059B33
:105138004345E0D1E4E700F0D9FA029A00EB09030D
:105148009B1A43440FFA83F8B9E72846FEF708FD8F
:10515800B7F814803B8B08F1FF38A8EB0308C84464
:105168008044A4B21FFA88F890E72846FEF7F8FCB6
:10517800BB8A3A8B013B9B1A4B4403441FFA83F8C2
:105188002846FEF723FDFB8A7A8B013B9B1A2344B2
:1051980003449CB27AE72846FEF7E2FC3B8BB98AC7
:1051A80001335B1AC3F3C03101FA83F800EBD07204
:1051B800A9EB680808EB6208A4B21FFA88F865E74B
:1051C8002846FEF7CDFC3B8BB98A01335B1AC3F343
:1051D800C03101FA83F800EBD072A9EB680808EB3C
:1051E80062081FFA88F8CBE72846FEF7EFFC1FFA9B
:1051F80089F8C8E77B8BFC8AB5F81880E41A6B8BB2
:1052080008F101081C44AB8AA8EB0308EB8AE41AEE
:105218001FFA88F8A4B239E7812700207B8BF98A26
:105228006A8BB5F8188001335B1AE98A0132521A81
:10523800C3F3C03101FA83F3A98A08F101085B10AE
:10524800A8EB0108C2F3C03101FA82F2C3EB620491
:105258001FFA88F8A4B219E7B5F81880AB8A08F1E4
:105268000108A8EB03081FFA88F800240EE77B8BD7
:10527800FC8AB7F81480E41A6B8B08F1FF381C44D9
:105288003B8BC1E77B8BF98A6A8BB7F814800133B3
:105298005B1AE98A0132521AC3F3C03101FA83F367
:1052A80008F1FF38398B5B10CAE7B7F814803B8BDD
:1052B80008F1FF38A8EB03081FFA88F80024E5E690
:1052C8003B8BB7F814806C8BA8EB03082B8B01344D
:1052D800984498E73B8BB98A2A8B6C8B01335B1A0D
:1052E800A98A0132521AC3F3C03101FA83F3E98A59
:1052F80001345B10641AC2F3C03101FA82F2C3EBC5
:105308006208A4B21FFA88F8C0E66C8BEB8A0134F5
:10531800E41AA4B24FF00008B8E63B8BB7F8148043
:10532800FC8AA8EB03082B8B9844AB8AA8EB0308EC
:105338007B8B013CE41A1FFA88F8A4B2A6E63B8BE3
:10534800B98A2A8BFC8A01335B1AA98A0132521A5C
:10535800C3F3C03101FA83F3013C798B5B10C9E7D1
:10536800FC8A7B8B013CE41AA4B24FF000088DE65E
:105378002846FEF7F5FB3B8BB98A01335B1AC3F36A
:10538800C03101FA83F800EBD072A9EB680828460F
:1053980008EB6208FEF71AFC1FFA88F800EBD072D7
:1053A8007B8BF98A01335B1AC3F3C03101FA83F3AB
:1053B800A4EB630303EB62039CB267E62846FEF79F
:1053C800CFFBBB8A3A8B013B9B1A4B4403442846CC
:1053D8001FFA83F8FEF7FAFB7B8BF98A01335B1A15
:1053E800C3F3C03101FA83F300EBD072A4EB63047A
:1053F80004EB6204A4B249E62846FEF7E7FB1FFA6D
:1054080089F800EBD072CBE70024A0463EE600BF47
:1054180038B50E4D2B7803B138BD01232B7002F03F
:1054280001FB90F822309A0704460CD594F82230F4
:1054380023F0020384F822302046FFF72BFD94F86E
:1054480022309B07F2D400232B7038BD812700201F
:10545800006800220B21FCF77DBA00BF38B504466E
:105468000D46FDF77BFCA268137E03F00301A942F9
:1054780007D065F3010313762046BDE83840FEF7F0
:1054880029BE38BD38B505460C46FDF767FCAA6845
:10549800537E03F00F01A1421CBF64F3030353764C
:1054A80038BD00BF38B505460C46FDF757FCAB685C
:1054B8001A7E64F383021A7638BD00BF38B50546F4
:1054C8000C46FDF74BFCAB681A7E64F305121A769E
:1054D80038BD00BF83681BB1187E00F00300704719
:1054E8000320704783681BB1587E00F00F00704797
:1054F8000F207047806810B1008A404200B27047A0
:10550800806810B1408A404200B27047806810B18C
:10551800408A404200B270472DE9F843064602F03F
:10552800C5FA00285DD0304FDFF8C09080460024CF
:10553800B3681B6853F8245049462846FDF702FC17
:1055480020B9B5F91A309F42B8BF1F460134A045AB
:10555800EED110220021304601F050FB32220446E1
:105568000021304601F04AFB33220546002130462F
:1055780001F044FB002182074FF01102304648BF7A
:10558800641901F03BFB322205460021304601F048
:1055980035FB332280460021304601F02FFBC3073C
:1055A800114B48BF45449F42A4B2ADB203D0738BA0
:1055B800FB1A2B441FB23046FEF7B6FB8046304636
:1055C800FEF7C8FA2C444444B368201A80B213B1D9
:1055D8005B8A184480B200B2B842B8BF3846BDE80A
:1055E800F883014FB5E700BF01E0FFFF01000400A9
:1055F8002DE9F84F16220021064601F0FFFAC0B245
:10560800012806D0B06810B1008A404200B2BDE857
:10561800F88F13220021304601F0F0FA32220446B6
:105628000021304601F0EAFA3322054600213046CF
:1056380001F0E4FA002102074FF01202304648BF99
:10564800641901F0DBFA322282460021304601F06B
:10565800D5FA332205460021304601F0CFFA430738
:10566800304648BFAA4402F021FAA4B21FFA8AFAC7
:105678008146A0B3DFF870B041F6FF780025B36823
:105688001B6853F8257059463846FDF75BFB20B96F
:10569800B7F914309845A8BF98460135A945EED109
:1056A80041F6FF7398451AD0B58A5544A5EB08050D
:1056B8002DB23046FEF728FB07463046FEF744FA7F
:1056C80054443C44B368201A80B213B11B8AC01AF0
:1056D80080B200B2A842B8BF2846BDE8F88F014D95
:1056E800E7E700BF01E0FFFF010004002DE9F843F0
:1056F80016220021064601F081FAC0B2012805D120
:10570800B06808B1B0F91000BDE8F883304602F07F
:10571800CDF92F4D804698B1DFF8B8900024B368D2
:105728001B6853F8247049463846FDF70BFB20B92F
:10573800B7F918309D42B8BF1D460134A045EED1D7
:1057480013220021304601F059FA32220446002182
:10575800304601F053FA332207460021304601F063
:105768004DFA002102074FF01202304648BFE419F3
:1057780001F044FA322207460021304601F03EFA91
:10578800332280460021304601F038FA4307104B97
:1057980048BF47449D42A4B2BFB203D0338BEB1A33
:1057A80023441DB23046FEF7AFFA80463046FEF776
:1057B800CBF93C444444B368201A80B213B11B8A25
:1057C800184480B200B2A842B8BF2846BDE8F883A2
:1057D80001E0FFFF0100040038B50C4613490546F7
:1057E80010F04AF868B1836A5B421BB21049238003
:1057F800284610F041F888B1836A5B421BB2638087
:1058080038BDAB68002BF1D01B8A09495B421BB23B
:105818002380284610F030F80028EDD1AB68002B23
:10582800EDD05B8A5B421BB2638038BD9D5800088F
:105838008958000851EA020370B502D101252846AB
:1058480070BD044615460E46FDF788FAA3681A8A05
:1058580032441A825A8A2A445A8231462A460123F5
:105868002046FEF79DFA00220C212046FCF772F82C
:1058780001280546E3D12046FEF72CFC284670BDDA
:10588800826812B1528A524292B20A4412B200217C
:10589800FFF7D0BF836813B11B8A5B429BB21944E0
:1058A800002209B2FFF7C6BF2DE9F041044694B0C3
:1058B80016460D46002936D192B3012B35D102F098
:1058C800B9F8E846074640460FF018FF444D454BE7
:1058D8000094039338460EF0BDF8324640F35D005D
:1058E80000210FF0E9FFB0F5C87F28BF4FF4C8705A
:1058F800C828A36838BFC8200B9023B15B8A5B42D5
:105908001BB2F61A5B42CDE908332046364B0A969D
:105918004246092101930795FCF71CF801285BD042
:1059280014B0BDE8F081012B1DD02F4920460FF09F
:1059380001FF2E4920460FF0FDFE002209212046D6
:10594800FCF708F80128EBD1324629462046FFF734
:1059580071FF0128E4D100220B21204614B0BDE8D4
:10596800F041FBF7F7BF02F065F8E8460746404606
:105978000FF0C4FE1B4B0393384600940EF058F802
:105988002A4640F35D0000210FF096FFB0F5C87F6E
:1059980028BF4FF4C870C828A36838BFC8200B9028
:1059A80023B11B8A5B421BB2ED1A5B42CDE9083377
:1059B8000A950E4B0A4D0193424609212046079548
:1059C800FBF7C8FF0128ABD140460FF005FF002EBA
:1059D80080D114B0BDE8F08140460FF0FDFE9FE78E
:1059E800E158010859540008895800089D580008D2
:1059F8002DE9F047984651EA020301D1BDE8F08746
:105A080006460C461546FFF703FDB368002B68D021
:105A18001F8A7F421FFA87F93FB2162200213046BB
:105A280001F0ECF8C0B2A4EB090A01280FFA8AFACF
:105A38001BD0BAF1000F42DBB468ABB2002C53D0D4
:105A4800618A0B441DB24942002D8CB223DB44EA23
:105A580007039BB2002BD1D025B243462A463946CC
:105A68003046BDE8F047FFF71FBFBAF1000FE3DD8E
:105A78003046FFF7BDFD04463046FFF737FE2318D2
:105A88001BB223EAE3735345D4BF9944D1440FFAB8
:105A980089F7D1E72ED03046FFF73EFD23181BB219
:105AA80023EAE3735A429542B3BFE31A61198CB2F1
:105AB8009CB244EA07039BB2002BCDD19EE7304647
:105AC800FFF796FD07463046FFF710FE07443FB242
